:020000040800F2
:100000000000022011240008512200085722000895
:100010005D22000863220008692200080000000039
:100020000000000000000000000000006F22000837
:100030007D220008000000008B22000899220008A1
:10004000612400086124000861240008612400087C
:10005000612400086124000861240008612400086C
:10006000612400086124000861240008612400085C
:10007000612400086124000861240008612400084C
:10008000612400086124000861240008612400083C
:10009000612400086124000861240008612400082C
:1000A000612400086124000861240008612400081C
:1000B000612400086124000861240008612400080C
:1000C00061240008612400086124000861240008FC
:1000D00061240008612400086124000861240008EC
:1000E00061240008612400086124000861240008DC
:1000F00061240008612400086124000861240008CC
:1001000061240008612400086124000861240008BB
:1001100061240008612400086124000861240008AB
:10012000612400086124000861240008612400089B
:1001300061240008000000000000000061240008A5
:10014000612400086124000861240008612400087B
:10015000612400086124000861240008612400086B
:10016000612400086124000861240008612400085B
:100170006124000861240008000000000000000065
:0801800061240008612400085D
:1001900010B5054C237833B9044B13B10448AFF3C1
:1001A00000800123237010BD6C00002000000000BF
:1001B0004064000808B5034B1BB103490348AFF383
:1001C000008008BD000000007000002040640008AE
:1001D00001F0FF01102A2BDB10F0070F08D010F8F8
:1001E000013B013A8B422DD010F0070F42B3F6D1FC
:1001F000F0B441EA012141EA014122F007047FF015
:1002000000070023F0E80256083C85EA010586EA6B
:10021000010685FA47F5A3FA87F586FA47F6A5FAA7
:1002200087F68EB9EED1F0BC01F0FF0102F00702B3
:1002300032B110F8013B013A83EA010313B1F8D15E
:100240000020704701387047002D06BF354603383F
:10025000073815F0010F07D1013015F4807F02BF78
:10026000013015F4C03F0130F0BC0138704700BFC9
:1002700081F0004102E000BF83F0004330B54FEA57
:1002800041044FEA430594EA050F08BF90EA020FC4
:100290001FBF54EA000C55EA020C7FEA645C7FEA57
:1002A000655C00F0E2804FEA5454D4EB5555B8BF7A
:1002B0006D420CDD2C4480EA020281EA030382EAEB
:1002C000000083EA010180EA020281EA0303362D7D
:1002D00088BF30BD11F0004F4FEA01314FF4801C50
:1002E0004CEA113102D0404261EB410113F0004F62
:1002F0004FEA03334CEA133302D0524263EB430319
:1003000094EA050F00F0A780A4F10104D5F1200EB6
:100310000DDB02FA0EFC22FA05F2801841F1000111
:1003200003FA0EF2801843FA05F359410EE0A5F1E5
:1003300020050EF1200E012A03FA0EFC28BF4CF016
:10034000020C43FA05F3C01851EBE37101F00045CC
:1003500007D54FF0000EDCF1000C7EEB00006EEBD9
:100360000101B1F5801F1BD3B1F5001F0CD3490863
:100370005FEA30004FEA3C0C04F101044FEA4452BA
:1003800012F5800F80F09A80BCF1004F08BF5FEA41
:10039000500C50F1000041EB045141EA050130BD21
:1003A0005FEA4C0C404141EB0101013C28BFB1F533
:1003B000801FE9D291F0000F04BF01460020B1FA7E
:1003C00081F308BF2033A3F10B03B3F120020CDA51
:1003D0000C3208DD02F1140CC2F10C0201FA0CF02F
:1003E00021FA02F10CE002F11402D8BFC2F1200C94
:1003F00001FA02F120FA0CFCDCBF41EA0C0190404A
:10040000E41AA2BF01EB0451294330BD6FEA040492
:100410001F3C1CDA0C340EDC04F11404C4F120027D
:1004200020FA04F001FA02F340EA030021FA04F38F
:1004300045EA030130BDC4F10C04C4F1200220FAE6
:1004400002F001FA04F340EA0300294630BD21FA24
:1004500004F0294630BD94F0000F83F4801306BFEA
:1004600081F480110134013D4EE77FEA645C18BFDE
:100470007FEA655C29D094EA050F08BF90EA020F75
:1004800005D054EA000C04BF1946104630BD91EA6D
:10049000030F1EBF0021002030BD5FEA545C05D170
:1004A0004000494128BF41F0004130BD14F58004AF
:1004B0003CBF01F5801130BD01F0004545F0FE4123
:1004C00041F470014FF0000030BD7FEA645C1ABF58
:1004D000194610467FEA655C1CBF0B46024650EA8F
:1004E000013406BF52EA033591EA030F41F40021BB
:1004F00030BD00BF90F0000F04BF0021704730B541
:100500004FF4806404F132044FF000054FF0000115
:1005100050E700BF90F0000F04BF0021704730B5D6
:100520004FF4806404F1320410F0004548BF4042AB
:100530004FF000013EE700BF42004FEAE2014FEA00
:1005400031014FEA02701FBF12F07F4393F07F4FDB
:1005500081F06051704732F07F4208BF704793F0DE
:100560007F4F04BF41F40021704730B54FF46074F1
:1005700001F0004521F000411CE700BF50EA0102F4
:1005800008BF704730B54FF000050AE050EA01029D
:1005900008BF704730B511F0004502D5404261EB0D
:1005A00041014FF4806404F132045FEA915C3FF44E
:1005B000D8AE4FF003025FEADC0C18BF03325FEAEB
:1005C000DC0C18BF033202EBDC02C2F1200300FA9C
:1005D00003FC20FA02F001FA03FE40EA0E0021FAC1
:1005E00002F11444BDE600BF70B54FF0FF0C4CF4AF
:1005F000E06C1CEA11541DBF1CEA135594EA0C0F61
:1006000095EA0C0F00F0DEF82C4481EA030621EA9B
:100610004C5123EA4C5350EA013518BF52EA0335D6
:1006200041F4801143F4801338D0A0FB02CE4FF088
:100630000005E1FB02E506F00042E0FB03E54FF0B8
:100640000006E1FB03569CF0000F18BF4EF0010EB0
:10065000A4F1FF04B6F5007F64F5407404D25FEAAC
:100660004E0E6D4146EB060642EAC62141EA55515F
:100670004FEAC52040EA5E504FEACE2EB4F1FD0CA1
:1006800088BFBCF5E06F1ED8BEF1004F08BF5FEA1F
:10069000500E50F1000041EB045170BD06F00046D1
:1006A00046EA010140EA020081EA0301B4EB5C047E
:1006B000C2BFD4EB0C0541EA045170BD41F4801176
:1006C0004FF0000E013C00F3AB8014F1360FDEBF9B
:1006D000002001F0004170BDC4F10004203C35DA77
:1006E0000C341BDC04F11404C4F1200500FA05F3FA
:1006F00020FA04F001FA05F240EA020001F000429B
:1007000021F0004110EBD37021FA04F642EB060110
:100710005EEA430E08BF20EAD37070BDC4F10C043A
:10072000C4F1200500FA04F320FA05F001FA04F2FE
:1007300040EA020001F0004110EBD37041F10001EA
:100740005EEA430E08BF20EAD37070BDC4F12005F5
:1007500000FA05F24EEA020E20FA04F301FA05F25D
:1007600043EA020321FA04F001F0004121FA04F205
:1007700020EA020000EBD3705EEA430E08BF20EAD5
:10078000D37070BD94F0000F0FD101F0004640000F
:1007900041EB010111F4801F08BF013CF7D041EA91
:1007A000060195F0000F18BF704703F00046520095
:1007B00043EB030313F4801F08BF013DF7D043EA66
:1007C0000603704794EA0C0F0CEA135518BF95EA1C
:1007D0000C0F0CD050EA410618BF52EA4306D1D1A3
:1007E00081EA030101F000414FF0000070BD50EAC2
:1007F000410606BF1046194652EA430619D094EA4C
:100800000C0F02D150EA013613D195EA0C0F05D135
:1008100052EA03361CBF104619460AD181EA030189
:1008200001F0004141F0FE4141F470014FF0000041
:1008300070BD41F0FE4141F4780170BD70B54FF0DC
:10084000FF0C4CF4E06C1CEA11541DBF1CEA13555C
:1008500094EA0C0F95EA0C0F00F0A7F8A4EB05043E
:1008600081EA030E52EA03354FEA013100F0888035
:100870004FEA03334FF0805545EA131343EA1263FE
:100880004FEA022245EA111545EA10654FEA0026B3
:100890000EF000419D4208BF964244F1FD0404F56C
:1008A000407402D25B084FEA3202B61A65EB0305C8
:1008B0005B084FEA32024FF480104FF4002CB6EB85
:1008C000020E75EB030E22BFB61A754640EA0C0005
:1008D0005B084FEA3202B6EB020E75EB030E22BF45
:1008E000B61A754640EA5C005B084FEA3202B6EB86
:1008F000020E75EB030E22BFB61A754640EA9C0045
:100900005B084FEA3202B6EB020E75EB030E22BF14
:10091000B61A754640EADC0055EA060E18D04FEAD2
:10092000051545EA16754FEA06164FEAC30343EA72
:1009300052734FEAC2025FEA1C1CC0D111F4801F3F
:100940000BD141EA00014FF000004FF0004CB6E738
:1009500011F4801F04BF01430020B4F1FD0C88BFD7
:10096000BCF5E06F3FF6AFAEB5EB030C04BFB6EBE2
:10097000020C5FEA500C50F1000041EB045170BDD5
:100980000EF0004E4EEA113114EB5C04C2BFD4EB02
:100990000C0541EA045170BD41F480114FF0000E86
:1009A000013C90E645EA060E8DE60CEA135594EA02
:1009B0000C0F08BF95EA0C0F3FF43BAF94EA0C0F05
:1009C0000AD150EA01347FF434AF95EA0C0F7FF47A
:1009D00025AF104619462CE795EA0C0F06D152EACE
:1009E00003353FF4FDAE1046194622E750EA4106B2
:1009F00018BF52EA43067FF4C5AE50EA41047FF4C3
:100A00000DAF52EA43057FF4EBAE12E74FEA410225
:100A1000B2F1E04324BFB3F5001CDCF1FE5C0DD95C
:100A200001F0004C4FEAC0024CEA5070B2F1004FA6
:100A300040EB830008BF20F00100704711F0804FA9
:100A400021D113F13872BCBF01F00040704741F46E
:100A500080114FEA5252C2F11802C2F1200C10FA72
:100A60000CF320FA02F018BF40F001004FEAC12356
:100A70004FEAD32303FA0CFC40EA0C0023FA02F3FA
:100A80004FEA4303CCE77FEA625307D150EA0133D0
:100A90001EBF4FF0FE4040F44000704701F00040A0
:100AA00040F0FE4040F40000704700BF53B94AB91F
:100AB000002908BF00281CBF4FF0FF314FF0FF3066
:100AC00000F070B9ADF1080C6DE904CE00F006F845
:100AD000DDF804E0DDE9022304B070472DE9F047BA
:100AE000089E0D4604460F46002B4AD18A42944682
:100AF00065D9B2FA82F343B102FA03FCC3F12002D2
:100B00009F4020FA02F217439C404FEA1C4E1FFA06
:100B10008CF5B7FBFEF1220C0EFB117742EA07427F
:100B200001FB05F090420AD91CEB020201F1FF37EC
:100B300080F01C81904240F2198102396244121AFD
:100B4000A4B2B2FBFEF00EFB102244EA024400FB0A
:100B500005F5A5420AD91CEB040400F1FF3280F030
:100B60000781A54240F204816444023840EA014012
:100B7000641B00211EB1DC400023C6E90043BDE830
:100B8000F0878B4208D9002E00F0ED800021C6E9E5
:100B900000050846BDE8F087B3FA83F1002949D182
:100BA000AB4202D3824200F2F880841A65EB030262
:100BB00001201746002EE2D0C6E90047DFE702B960
:100BC000FFDEB2FA82F3002B40F090808A1A4FEADF
:100BD0001C471FFA8CFE0121B2FBF7F507FB15201D
:100BE000220C42EA00420EFB05F0904208D91CEBB1
:100BF000020205F1FF3802D2904200F2CB80454656
:100C0000121AA4B2B2FBF7F007FB102244EA024426
:100C10000EFB00FEA64508D91CEB040400F1FF32D0
:100C200002D2A64500F2BB801046A4EB0E0440EAB7
:100C300005409FE7C1F120078B4022FA07FC4CEAF0
:100C4000030C05FA01F420FA07F3FD404FEA1C49B2
:100C50002343B5FBF9F81FFA8CFE09FB18551C0C51
:100C600044EA054408FB0EF5A54202FA01F200FA37
:100C700001F00BD91CEB040408F1FF3A80F08880E6
:100C8000A54240F28580A8F102086444641B9DB22D
:100C9000B4FBF9F309FB134445EA044403FB0EFEDD
:100CA000A64508D91CEB040403F1FF356CD2A64518
:100CB0006AD9023B644443EA0843A3FB0295A4EBD0
:100CC0000E04AC42C846AE4656D353D056B1B0EB34
:100CD000080264EB0E0404FA07F7CA40CC4017433D
:100CE000C6E9007418460021BDE8F087C3F1200171
:100CF00002FA03FC20FA01F225FA01F19D402A4391
:100D00004FEA1C471FFA8CFEB1FBF7F007FB1015EA
:100D1000110C41EA054100FB0EF58D4204FA03F483
:100D200008D91CEB010100F1FF382FD28D422DD9DB
:100D300002386144491B92B2B1FBF7F507FB15116C
:100D400042EA014205FB0EF1914208D91CEB020276
:100D500005F1FF3816D2914214D9023D6244521A6D
:100D600045EA004138E73146304608E73946E6E6CD
:100D70001046FBE64845A9D2B9EB020865EB0C0E1C
:100D8000013BA3E74546EAE72B4694E74046D1E717
:100D9000D0467BE7023D624432E708460AE76444F6
:100DA000023842E7704700BF80B500AF00224FF421
:100DB00080715C4802F0D0F85B4B0F221A7032232E
:100DC00001225949594802F0DCFD322301225849D9
:100DD000564802F012FF01224FF48071514802F090
:100DE000BBF801224FF480714E4802F0B5F8142090
:100DF00001F0AAFB00224FF480714A4802F0ACF8DF
:100E0000142001F0A1FB484B20221A70464BFF2210
:100E10005A70322302224449444802F0B2FD0122B2
:100E20004FF480713F4802F097F8142001F08CFBDA
:100E300000224FF480713B4802F08EF8142001F03C
:100E400083FB394B21221A70374B00225A70322310
:100E500002223549354802F094FD01224FF4807199
:100E6000304802F079F8142001F06EFB00224FF4B4
:100E700080712C4802F070F8142001F065FB2A4BB9
:100E800022221A70284B00225A703223022226494D
:100E9000264802F076FD01224FF48071214802F0CD
:100EA0005BF8142001F050FB00224FF480711D48C4
:100EB00002F052F8142001F047FB1B4B23221A705A
:100EC000194B20225A70322302221749174802F088
:100ED00058FD01224FF48071124802F03DF81420B1
:100EE00001F032FB00224FF480710E4802F034F81A
:100EF000142001F029FB0C4B24221A700A4B1022FB
:100F00005A70322302220849084802F03AFD0122B1
:100F10004FF48071034802F01FF8142001F014FB15
:100F200000BF80BD00080240B82F0020183000200C
:100F3000BD2F00202DE9B04F98B000AF0021A7F8D9
:100F400046100021A7F844100021A7F8421007F12D
:100F50002C010020086048608860C860086107F1C3
:100F600018010020086048608860C8600861391D69
:100F70000020086048608860C86008610021F96549
:100F80000021B96500217965002139658849096822
:100F9000496A884801608749086887490968884222
:100FA0001FD3844B1A68844B1B68D31A1846FFF76B
:100FB000A1FA04460D4602F027FC03461846FFF747
:100FC00099FA02460B4620462946FFF737FC0246AF
:100FD0000B4610461946FFF719FD0346774A136082
:100FE0002CE07449096800208846814618F1FF32D8
:100FF00049F100037049096800200C460546B2EB30
:10100000040A63EB050B50465946FFF7BFFA044646
:101010000D4602F0F9FB03461846FFF76BFA02464D
:101020000B4620462946FFF709FC02460B461046B0
:101030001946FFF7EBFC0346604A13605D4B1B68E3
:101040005D4A13605E4B1B78002B03D0012B00F030
:10105000CD8076E35B4B1B78012B40F0718300223F
:101060004FF48071584801F077FF584BA8221A704E
:10107000322301225549564802F083FC32230122D3
:101080005449534802F0B9FD01224FF480714E4893
:1010900001F062FF00224FF480714B4801F05CFFC9
:1010A0004A4BA9221A70322301224849484802F0CB
:1010B00068FC322301224849454802F09EFD012286
:1010C0004FF48071404801F047FF00224FF48071D7
:1010D0003D4801F041FF3D4BAA221A703223012204
:1010E0003A493B4802F04DFC322301223B49384843
:1010F00002F083FD01224FF48071334801F02CFF90
:1011000000224FF48071304801F026FF2F4BAB22B4
:101110001A70322301222D492D4802F032FC32236D
:1011200001222F492A4802F068FD01224FF4807104
:10113000254801F011FF00224FF48071224801F090
:101140000BFF224BAC221A70322301221F49204888
:1011500002F017FC3223012222491D4802F04DFD06
:1011600001224FF48071184801F0F6FE00224FF47E
:101170008071154801F0F0FE144BAD221A70322335
:1011800001221249124802F0FCFB322301221649C7
:101190000F4802F032FD01224FF480710A4801F03D
:1011A000DBFE074B01221A70064B00221A70C7E2C1
:1011B000C8300020CC2F0020C42F0020C82F0020D2
:1011C000890000200000002000080240B82F002005
:1011D00018300020BD2F0020BE2F0020BF2F002080
:1011E000C02F0020C12F0020C22F00209D4B9B78D4
:1011F0001B021AB29B4B5B781BB213431BB2A7F8BE
:101200004630984B1B791B021AB2964BDB781BB207
:1012100013431BB2A7F84430924B9B791B021AB2BE
:10122000904B5B791BB213431BB2A7F842308E4B35
:101230001B78022B40F0DC804FF480518B4801F08A
:10124000A4FEB7F846301BB21A46894B1B68D31A66
:1012500007EE903AF8EEE77A9FED867A67EE877AA6
:10126000854BC3ED007AB7F844301BB21A46834B66
:101270001B68D31A07EE903AF8EEE77A9FED7D7A75
:1012800067EE877A7E4BC3ED007AB7F842301BB227
:101290001A467C4B1B68D31A07EE903AF8EEE77AB1
:1012A0009FED747A67EE877A774BC3ED007A724BC5
:1012B00093ED007A754BD3ED007AB4EEE77AF1EE58
:1012C00010FA0CDC714BD3ED007AB1EE677A6A4B01
:1012D000D3ED007AB4EEE77AF1EE10FA1CDD664B3E
:1012E00093ED007A6A4BD3ED007A37EE277A694B9B
:1012F000D3ED007A67EE277AF0EE006A87EEA67AE1
:10130000654BD3ED007A77EE277A634BC3ED007A15
:10131000594B1B685E4A1360594B93ED007A5F4B43
:10132000D3ED007AB4EEE77AF1EE10FA0CDC5B4B09
:10133000D3ED007AB1EE677A514BD3ED007AB4EE7B
:10134000E77AF1EE10FA1CDD4D4B93ED007A544B29
:10135000D3ED007A37EE277A4E4BD3ED007A67EE65
:10136000277AF0EE006A87EEA67A4E4BD3ED007A2C
:1013700077EE277A4B4BC3ED007A414B1B68484A06
:101380001360414B93ED007A474BD3ED007AB4EEF6
:10139000E77AF1EE10FA0DDC434BD3ED007AB1EEB3
:1013A000677A394BD3ED007AB4EEE77AF1EE10FAB2
:1013B00040F3BF81344B93ED007A3C4BD3ED007A80
:1013C00037EE277A334BD3ED007A67EE277AF0EECB
:1013D000006A87EEA67A364BD3ED007A77EE277A4D
:1013E000334BC3ED007A284B1B68304A1360A0E1F1
:1013F0001D4B1B78022B00F09781022B00F3968186
:10140000002B02D0012B2AD090E12A4B1B68B7F8A1
:10141000462011B2284A22F81310264B1B68B7F851
:10142000442011B2254A22F81310224B1B68B7F84A
:10143000422011B2224A22F813101E4B1B680133BE
:101440001C4A13601B4B1B68B3F5FA6FC0F0708128
:10145000184B00221A60044B01221A7068E1002325
:10146000FB64A0E0BC2F00208800002000000240A8
:1014700098000020295C8F3D8C0000209C000020FB
:1014800090000020A000002094000020A400002074
:10149000BC000020C82F0020B0000020A8000020C1
:1014A000C0000020B4000020AC000020C4000020D8
:1014B000B8000020D4000020D800002078100020C0
:1014C00018200020FB6D5B0060333B4433F9343C53
:1014D0001A46BB6D9B1A9D49FA6C31F912201344D0
:1014E000BB65FB6D5B0060333B4433F9483C1A46F7
:1014F0007B6D9B1A9649FA6C31F9122013447B6577
:10150000FB6D5B0060333B4433F95C3C1A463B6D3A
:101510009B1A9049FA6C31F9122013443B658B4AAF
:10152000FB6C32F91320FB6D5B0060333B4423F806
:10153000342C874AFB6C32F91320FB6D5B0060335F
:101540003B4423F8482C834AFB6C32F91320FB6D93
:101550005B0060333B4423F85C2CBB6D7E4A82FB0E
:1015600003129210DB17D31A7C4A13607B6D7A4A00
:1015700082FB03129210DB17D31A794A13603B6D7A
:10158000754A82FB03129210DB17D31A754A136057
:10159000FB6D0133FB65FB6D092B01D90023FB6556
:1015A000FB6C0133FB64FB6CB3F5FA6F8AD3002349
:1015B000BB6489E0654ABB6C32F913301A46674B4D
:1015C0001B68D21A684B1B689A420ADD5F4ABB6CE3
:1015D00032F913301A46614B1B68D31A624A136002
:1015E00015E05A4ABB6C32F913301A465B4B1B6844
:1015F000D21A5D4B1B685B429A4208DA574B1B6854
:101600005249BA6C31F912209B1A574A1360504A5A
:10161000BB6C32F913301A46514B1B68D21A534B2C
:101620001B689A420ADD4A4ABB6C32F913301A46EB
:101630004B4B1B68D31A4D4A136015E0444ABB6CF0
:1016400032F913301A46464B1B68D21A474B1B68B7
:101650005B429A4208DA424B1B683D49BA6C31F949
:1016600012209B1A414A13603A4ABB6C32F913307C
:101670001A463C4B1B68D21A3D4B1B689A420ADD46
:10168000344ABB6C32F913301A46364B1B68D31AF6
:10169000374A136015E02F4ABB6C32F913301A46F3
:1016A000304B1B68D21A324B1B685B429A4208DAF5
:1016B0002C4B1B682749BA6C31F912209B1A2C4A13
:1016C0001360BB6C0133BB64BB6CB3F5FA6FFFF402
:1016D00071AF254B1B6807EE903AF8EEE77A9FED65
:1016E000257A67EE877A244BC3ED007A1F4B1B687F
:1016F00007EE903AF8EEE77A9FED1E7A67EE877A6A
:101700001E4BC3ED007A1A4B1B6807EE903AF8EEB9
:10171000E77A9FED187A67EE877A194BC3ED007A66
:10172000184B02221A7004E000BF02E000BF00E084
:1017300000BF154B00221A70144B01221A7000E0F2
:1017400000BF00BF6037BD46BDE8B08FD8000020A5
:101750007810002018200020676666669800002038
:101760009C000020A0000020C8000020CC00002029
:10177000D0000020295C8F3DA4000020A80000209C
:10178000AC0000208800002089000020000000201C
:1017900080B500AF00F066FE00F038F8164B01226D
:1017A0001A6000F06BFA00F0E1F800F0A5F900F023
:1017B0008BF800F011F900F047F900F035FA0F4806
:1017C00003F0D6FF0C4B02221A60FFF7EDFA0C482B
:1017D00002F046FEFFF7AEFB012000F0B5FE094B1C
:1017E0001B881946084803F05DFF064B1B88013330
:1017F0009AB2044B1A80EDE77C0000E058640008C0
:10180000C83000209C3100206864000880B594B086
:1018100000AF07F1200330220021184604F088F8B9
:1018200007F10C0300221A605A609A60DA601A61AC
:101830000023BB60224B1B6C214A43F0805313648E
:101840001F4B1B6C03F08053BB60BB6800237B60A5
:101850001C4B1B681B4A43F480431360194B1B68E5
:1018600003F480437B607B6802233B620123FB62BD
:1018700010233B630023BB6307F12003184601F0EC
:101880009FFB0346002B01D000F0D0FA0F23FB6032
:1018900000233B6100237B610023BB610023FB61CC
:1018A00007F10C030021184601F002FE0346002B4D
:1018B00001D000F0BBFA00BF5037BD4680BD00BF6D
:1018C000003802400070004080B584B000AF3B4655
:1018D00000221A605A609A60DA60214B214A1A602D
:1018E0001F4B00225A601E4B00229A601C4B0022A4
:1018F0001A611B4B00221A76194B002283F8202014
:10190000174B0022DA62164B174A9A62144B0022D8
:10191000DA60134B0122DA61114B002283F8302088
:101920000F4B01225A610E4800F032FE0346002B95
:1019300001D000F07BFA04233B6001237B6000238D
:10194000BB603B461946064800F066FE0346002B86
:1019500001D000F06BFA00BF1037BD4680BD00BF5C
:10196000D02F0020002001400100000F80B500AF03
:10197000174B184A1A60164B4FF482725A60144B78
:1019800000229A60124B0022DA60114B00221A6189
:101990000F4B00225A610E4B4FF400729A610C4BB0
:1019A0001822DA610A4B00221A62094B00225A629D
:1019B000074B00229A62064B0A22DA62044801F0C1
:1019C00057FF0346002B01D000F030FA00BF80BD66
:1019D000183000200030014080B500AF184B194A84
:1019E0001A60174B4FF482725A60154B4FF4004245
:1019F0009A60134B0022DA60114B00221A61104BDF
:101A000000225A610E4B4FF400729A610C4B002277
:101A1000DA610B4B00221A62094B00225A62084B12
:101A200000229A62064B0A22DA62054801F020FF82
:101A30000346002B01D000F0F9F900BF80BD00BFC4
:101A4000703000200038004080B58AB000AF07F148
:101A5000200300221A605A603B1D00221A605A605F
:101A60009A60DA601A615A619A61224B4FF08042A3
:101A70001A60204B00225A601E4B00229A601D4BB8
:101A80004FF0FF32DA601B4B00221A61194B002223
:101A90009A61184802F054FD0346002B01D000F073
:101AA000C5F900233B6200237B6207F1200319463E
:101AB000104803F009FA0346002B01D000F0B6F9F4
:101AC00060237B600023BB600023FB6000237B61FD
:101AD0003B1D08221946074802F082FD0346002BF1
:101AE00001D000F0A3F9034800F00AFB00BF28373B
:101AF000BD4680BDC830002080B58EB000AF07F174
:101B0000280300221A605A609A60DA6007F1200305
:101B100000221A605A603B1D00221A605A609A60C7
:101B2000DA601A615A619A613D4B3E4A1A603C4B39
:101B300000225A603A4B00229A60394B4FF6FF72EE
:101B4000DA60374B00221A61354B00229A61344823
:101B500002F036FC0346002B01D000F067F94FF489
:101B60008053BB6207F1280319462D4802F0FAFDA5
:101B70000346002B01D000F059F9294802F0E0FC9F
:101B80000346002B01D000F051F900233B620023F3
:101B90007B6207F120031946214803F095F90346BB
:101BA000002B01D000F042F960237B600023BB6072
:101BB0000023FB6000237B613B1D0022194618486F
:101BC00002F00EFD0346002B01D000F02FF93B1D63
:101BD00004221946124802F003FD0346002B01D0EF
:101BE00000F024F93B1D082219460D4802F0F8FCCC
:101BF0000346002B01D000F019F93B1D0C221946B9
:101C0000074802F0EDFC0346002B01D000F00EF96E
:101C1000034800F075FA00BF3837BD4680BD00BFED
:101C2000103100200008004080B500AF114B124A6F
:101C30001A60104B4FF4E1325A600E4B00229A604A
:101C40000C4B0022DA600B4B00221A61094B0C226C
:101C50005A61084B00229A61064B0022DA6105485E
:101C600003F0AEF90346002B01D000F0DFF800BF0F
:101C700080BD00BF583100200010014080B58AB0FF
:101C800000AF07F1140300221A605A609A60DA600C
:101C90001A6100233B61604B1B6B5F4A43F00403F6
:101CA00013635D4B1B6B03F004033B613B69002333
:101CB000FB60594B1B6B584A43F080031363564B30
:101CC0001B6B03F08003FB60FB680023BB60524B7F
:101CD0001B6B514A43F0010313634F4B1B6B03F023
:101CE0000103BB60BB6800237B604B4B1B6B4A4A04
:101CF00043F002031363484B1B6B03F002037B604A
:101D00007B6800233B60444B1B6B434A43F0080352
:101D10001363414B1B6B03F008033B603B680022DD
:101D200041F6E7513D4801F017F9002241F6100154
:101D30003B4801F011F900224FF4C851394801F035
:101D40000BF900220421384801F006F94FF4005342
:101D50007B610023BB610023FB6107F1140319467B
:101D60002E4800F05DFF41F6E7537B610123BB6124
:101D70000023FB6100233B6207F114031946274847
:101D800000F04EFF48F20B037B610023BB61002390
:101D9000FB6107F114031946224800F041FF44F2A9
:101DA0002C437B610023BB610023FB6107F114031B
:101DB00019461B4800F034FF41F610037B610123F4
:101DC000BB610023FB6100233B6207F1140319464A
:101DD000134800F025FF4FF4C8537B610123BB611A
:101DE0000023FB6100233B6207F1140319460D48F1
:101DF00000F016FF04237B610123BB610023FB611C
:101E000000233B6207F114031946074800F008FF5E
:101E100000BF2837BD4680BD0038024000080240A0
:101E20000004024000000240000C024080B400AFF9
:101E300072B600BFFEE7000080B483B000AF00239D
:101E40007B60104B5B6C0F4A43F4804353640D4B33
:101E50005B6C03F480437B607B6800233B60094B31
:101E60001B6C084A43F080531364064B1B6C03F051
:101E700080533B603B6800BF0C37BD465DF8047B78
:101E8000704700BF0038024080B58CB000AF78606A
:101E900007F11C0300221A605A609A60DA601A6126
:101EA0007B681B68314A93425BD10023BB61304B96
:101EB0005B6C2F4A43F4807353642D4B5B6C03F4CB
:101EC0008073BB61BB6900237B61294B1B6B284A74
:101ED00043F004031363264B1B6B03F004037B6185
:101EE0007B6900233B61224B1B6B214A43F00103BA
:101EF00013631F4B1B6B03F001033B613B69002322
:101F0000FB601B4B1B6B1A4A43F002031363184B15
:101F10001B6B03F00203FB60FB681823FB610323C8
:101F20003B6200237B6207F11C031946114800F055
:101F300077FE1023FB6103233B6200237B6207F1E2
:101F40001C0319460C4800F06BFE0323FB610323BE
:101F50003B6200237B6207F11C031946074800F02F
:101F60005FFE00BF3037BD4680BD00BF002001408E
:101F70000038024000080240000002400004024015
:101F800080B58CB000AF786007F11C0300221A60A6
:101F90005A609A60DA601A617B681B68324A934221
:101FA0002CD10023BB61314B5B6C304A43F480532E
:101FB00053642E4B5B6C03F48053BB61BB690023FD
:101FC0007B612A4B1B6B294A43F001031363274BA8
:101FD0001B6B03F001037B617B69E023FB61022340
:101FE0003B6200237B620323BB620523FB6207F194
:101FF0001C0319461E4800F013FE31E07B681B6885
:102000001C4A93422CD100233B61184B1B6C174A8E
:1020100043F480431364154B1B6C03F480433B6112
:102020003B690023FB60114B1B6B104A43F002031A
:1020300013630E4B1B6B03F00203FB60FB684FF452
:102040002043FB6102233B6200237B620323BB62CC
:102050000523FB6207F11C031946074800F0E0FD69
:1020600000BF3037BD4680BD00300140003802401F
:1020700000000240003800400004024080B485B0F7
:1020800000AF78607B681B68B3F1804F0DD10023EF
:10209000FB60094B1B6C084A43F001031364064BB9
:1020A0001B6C03F00103FB60FB6800BF1437BD46E7
:1020B0005DF8047B704700BF0038024080B485B0F3
:1020C00000AF78607B681B680B4A93420DD10023F8
:1020D000FB600A4B1B6C094A43F004031364074B73
:1020E0001B6C03F00403FB60FB6800BF1437BD46A4
:1020F0005DF8047B704700BF0008004000380240D4
:1021000080B58AB000AF786007F1140300221A602E
:102110005A609A60DA601A617B681B68B3F1804F7D
:102120001ED100233B61224B1B6B214A43F001036C
:1021300013631F4B1B6B03F001033B613B690423DB
:102140007B610223BB610023FB6100233B6201230F
:102150007B6207F114031946164800F061FD23E085
:102160007B681B68144A93421ED10023FB60104B0E
:102170001B6B0F4A43F0020313630D4B1B6B03F001
:102180000203FB60FB684FF470737B610223BB6149
:102190000023FB6100233B6202237B6207F11403EF
:1021A0001946064800F03CFD00BF2837BD4680BDFB
:1021B00000380240000002400008004000040240D5
:1021C00080B58AB000AF786007F1140300221A606E
:1021D0005A609A60DA601A617B681B68194A9342F8
:1021E0002CD100233B61184B5B6C174A43F0100362
:1021F0005364154B5B6C03F010033B613B69002398
:10220000FB60114B1B6B104A43F0010313630E4B31
:102210001B6B03F00103FB60FB684FF4C0637B6141
:102220000223BB610023FB6103233B6207237B6224
:1022300007F114031946054800F0F2FC00BF2837E7
:10224000BD4680BD00100140003802400000024041
:1022500080B400AFFEE780B400AFFEE780B400AF0B
:10226000FEE780B400AFFEE780B400AFFEE780B4C5
:1022700000AF00BFBD465DF8047B704780B400AF7F
:1022800000BFBD465DF8047B704780B400AF00BF5F
:10229000BD465DF8047B704780B500AF00F034F9AF
:1022A00000BF80BD80B586B000AFF860B9607A60CD
:1022B00000237B610AE0AFF300800146BB685A1C33
:1022C000BA60CAB21A707B6901337B617A697B6834
:1022D0009A42F0DB7B6818461837BD4680BD80B552
:1022E00086B000AFF860B9607A6000237B6109E0D6
:1022F000BB685A1CBA601B781846AFF300807B6934
:1023000001337B617A697B689A42F1DB7B6818460E
:102310001837BD4680BD80B483B000AF78604FF001
:10232000FF3318460C37BD465DF8047B704780B418
:1023300083B000AF786039603B684FF400525A6058
:10234000002318460C37BD465DF8047B704780B407
:1023500083B000AF7860012318460C37BD465DF8A6
:10236000047B704780B485B000AFF860B9607A60D4
:10237000002318461437BD465DF8047B7047000003
:1023800080B586B000AF7860144A154BD31A7B61D4
:102390007B693B61134B1B68002B02D1114B124A26
:1023A0001A60104B1A687B6813443A699A4207D244
:1023B00003F00CFB03460C221A604FF0FF3309E0D8
:1023C000084B1B68FB60074B1A687B681344054A7F
:1023D0001360FB6818461837BD4680BD0000022018
:1023E00000040000A0310020F832002080B400AFCB
:1023F000064BD3F88830054A43F47003C2F888309E
:1024000000BFBD465DF8047B704700BF00ED00E0F3
:10241000DFF834D00D480E490E4A002302E0D458AC
:10242000C4500433C4188C42F9D30B4A0B4C00231C
:1024300001E013600432A242FBD3FFF7D7FF03F0A1
:10244000CBFAFFF7A5F9704700000220000000203A
:102450006C000020D46400086C000020F4320020DE
:10246000FEE7000080B500AF0E4B1B680D4A43F439
:10247000007313600B4B1B680A4A43F480631360BC
:10248000084B1B68074A43F480731360032000F075
:1024900093FB0F2000F008F8FFF7CEFC002318464E
:1024A00080BD00BF003C024080B582B000AF7860C4
:1024B000124B1A68124B1B7819464FF47A73B3FB10
:1024C000F1F3B2FBF3F3184600F09DFB0346002B3B
:1024D00001D001230EE07B680F2B0AD80022796817
:1024E0004FF0FF3000F073FB064A7B681360002357
:1024F00000E0012318460837BD4680BD04000020D7
:102500000C0000200800002080B400AF064B1B78B0
:102510001A46064B1B681344044A136000BFBD46AD
:102520005DF8047B704700BF0C000020A431002040
:1025300080B400AF034B1B681846BD465DF8047BB2
:10254000704700BFA431002080B584B000AF786030
:10255000FFF7EEFFB8607B68FB60FB68B3F1FF3FFD
:1025600005D00A4B1B781A46FB681344FB6000BF7A
:10257000FFF7DEFF0246BB68D31AFA689A42F7D823
:1025800000BF00BF1037BD4680BD00BF0C0000205B
:1025900080B584B000AF78600023FB737B68002BAC
:1025A00001D1012333E07B681B6C002B09D17868D3
:1025B000FFF76AFC7B6800225A647B68002283F87C
:1025C0003C207B681B6C03F01003002B18D17B6848
:1025D0001B6C23F4885323F0020343F002027B6850
:1025E0001A64786800F03AF97B6800225A647B68C4
:1025F0001B6C23F0030343F001027B681A6401E0C3
:102600000123FB737B68002283F83C20FB7B184688
:102610001037BD4680BD000080B485B000AF786043
:1026200039600023BB607B6893F83C30012B01D1FB
:10263000022305E17B68012283F83C203B681B688C
:10264000092B25D97B681B68D9683B681B689BB23E
:102650001A4613465B0013441E3B072202FA03F39B
:10266000DA437B681B680A40DA607B681B68D968BC
:102670003B689A683B681B689BB2184603465B0040
:1026800003441E3B9A407B681B680A43DA6022E0E1
:102690007B681B6819693B681B689BB21A46134626
:1026A0005B001344072202FA03F3DA437B681B68DA
:1026B0000A401A617B681B6819693B689A683B6825
:1026C0001B689BB2184603465B0003449A407B6834
:1026D0001B680A431A613B685B68062B24D87B6839
:1026E0001B68596B3B685A6813469B001344053BB3
:1026F0001F2202FA03F3DA437B681B680A405A631D
:102700007B681B68596B3B681B689BB218463B682B
:102710005A6813469B001344053B00FA03F27B689A
:102720001B680A435A634CE03B685B680C2B24D857
:102730007B681B68196B3B685A6813469B001344FF
:10274000233B1F2202FA03F3DA437B681B680A402B
:102750001A637B681B68196B3B681B689BB2184641
:102760003B685A6813469B001344233B00FA03F26C
:102770007B681B680A431A6323E07B681B68D96A7D
:102780003B685A6813469B001344413B1F2202FAE0
:1027900003F3DA437B681B680A40DA627B681B68D4
:1027A000D96A3B681B689BB218463B685A68134657
:1027B0009B001344413B00FA03F27B681B680A4309
:1027C000DA62224BFB607B681B68214A934209D185
:1027D0003B681B68122B05D1FB685B6843F48002E1
:1027E000FB685A607B681B68194A934223D13B6897
:1027F0001B68102B03D03B681B68112B1BD1FB6897
:102800005B6843F40002FB685A603B681B68102B4E
:1028100011D1104B1B68104AA2FB03239A0C1346DC
:102820009B0013445B00BB6002E0BB68013BBB60E4
:10283000BB68002BF9D17B68002283F83C20002381
:1028400018461437BD465DF8047B704700230140ED
:10285000002001400400002083DE1B4380B485B0CB
:1028600000AF7860794BFB60FB685B6823F4403213
:10287000FB685A60FB685A687B685B681A43FB68B0
:102880005A607B681B685A687B681B6822F48072F8
:102890005A607B681B6859687B681B691A027B68F1
:1028A0001B680A435A607B681B685A687B681B6810
:1028B00022F040725A607B681B6859687B689A688E
:1028C0007B681B680A435A607B681B689A687B6850
:1028D0001B6822F400629A607B681B6899687B68B9
:1028E000DA687B681B680A439A607B689B6A584A6F
:1028F000934222D07B681B689A687B681B6822F031
:1029000070629A607B681B6899687B689A6A7B68CA
:102910001B680A439A607B681B689A687B681B681F
:1029200022F040529A607B681B6899687B68DA6A7B
:102930007B681B680A439A600FE07B681B689A6893
:102940007B681B6822F070629A607B681B689A68DB
:102950007B681B6822F040529A607B681B689A680B
:102960007B681B6822F002029A607B681B6899688A
:102970007B681B7E5A007B681B680A439A607B68F1
:1029800093F82030002B1BD07B681B685A687B684B
:102990001B6842F400625A607B681B685A687B6857
:1029A0001B6822F460425A607B681B6859687B6828
:1029B0005B6A013B5A037B681B680A435A6007E065
:1029C0007B681B685A687B681B6822F400625A6047
:1029D0007B681B68DA6A7B681B6822F47002DA6223
:1029E0007B681B68D96A7B68DB69013B1A057B68D9
:1029F0001B680A43DA627B681B689A687B681B68FD
:102A000022F400729A607B681B6899687B6893F86F
:102A100030305A027B681B680A439A607B681B68E7
:102A20009A687B681B6822F480629A607B681B68E6
:102A300099687B685B699A027B681B680A439A60A5
:102A400000BF1437BD465DF8047B7047002301408A
:102A50000100000F80B485B000AF78607B6803F0A0
:102A60000703FB600C4BDB68BB60BA684FF6FF03E3
:102A70001340BB60FB681A02BB68134343F0BF639B
:102A800043F40033BB60044ABB68D36000BF143713
:102A9000BD465DF8047B704700ED00E080B400AFF8
:102AA000044BDB681B0A03F007031846BD465DF8BC
:102AB000047B704700ED00E080B483B000AF0346B4
:102AC0003960FB7197F90730002B0ADB3B68DAB2FB
:102AD0000C4997F907301201D2B20B4483F8002356
:102AE0000AE03B68DAB20849FB7903F00F03043BC4
:102AF0001201D2B20B441A7600BF0C37BD465DF806
:102B0000047B704700E100E000ED00E080B489B094
:102B100000AFF860B9607A60FB6803F00703FB61FF
:102B2000FB69C3F10703042B28BF0423BB61FB69C6
:102B30000433062B02D9FB69033B00E000237B61D1
:102B40004FF0FF32BB6902FA03F3DA43BB681A4065
:102B50007B699A404FF0FF317B6901FA03F3D94357
:102B60007B680B40134318462437BD465DF8047B51
:102B70007047000080B582B000AF78607B68013B91
:102B8000B3F1807F01D301230FE00A4A7B68013B48
:102B900053600F214FF0FF30FFF78EFF054B0022EF
:102BA0009A60044B07221A60002318460837BD4676
:102BB00080BD00BF10E000E080B582B000AF78605B
:102BC0007868FFF747FF00BF0837BD4680BD80B576
:102BD00086B000AF0346B9607A60FB7300237B6167
:102BE000FFF75CFF78617A68B9687869FFF78EFF54
:102BF000024697F90F3011461846FFF75DFF00BFF8
:102C00001837BD4680BD80B582B000AF7860786867
:102C1000FFF7B0FF034618460837BD4680BD0000E9
:102C200080B489B000AF7860396000237B610023F5
:102C30003B610023BB610023FB616BE10122FB6967
:102C400002FA03F37B613B681B687A6913403B61BE
:102C50003A697B699A4240F05A813B685B6803F0AD
:102C60000303012B05D03B685B6803F00303022BD1
:102C700030D17B689B68BB61FB695B00032202FA71
:102C800003F3DB43BA691340BB613B68DA68FB6955
:102C90005B0002FA03F3BA691343BB617B68BA694C
:102CA0009A607B685B68BB610122FB6902FA03F3EF
:102CB000DB43BA691340BB613B685B681B0903F0E7
:102CC0000102FB6902FA03F3BA691343BB617B6833
:102CD000BA695A603B685B6803F00303032B17D0A3
:102CE0007B68DB68BB61FB695B00032202FA03F3CC
:102CF000DB43BA691340BB613B689A68FB695B00C0
:102D000002FA03F3BA691343BB617B68BA69DA60FC
:102D10003B685B6803F00303022B23D1FB69DA08ED
:102D20007B68083253F82230BB61FB6903F007036C
:102D30009B000F2202FA03F3DB43BA691340BB6125
:102D40003B681A69FB6903F007039B0002FA03F36F
:102D5000BA691343BB61FB69DA087B680832B96959
:102D600043F822107B681B68BB61FB695B00032290
:102D700002FA03F3DB43BA691340BB613B685B684B
:102D800003F00302FB695B0002FA03F3BA69134321
:102D9000BB617B68BA691A603B685B6803F44033C7
:102DA000002B00F0B4800023FB60604B5B6C5F4A3B
:102DB00043F4804353645D4B5B6C03F48043FB60DE
:102DC000FB685B4AFB699B08023352F82330BB6106
:102DD000FB6903F003039B000F2202FA03F3DB43BA
:102DE000BA691340BB617B68524A93422BD07B681F
:102DF000514A934225D07B68504A93421FD07B684A
:102E00004F4A934219D07B684E4A934213D07B6855
:102E10004D4A93420DD07B684C4A934207D07B6861
:102E20004B4A934201D107230EE008230CE006230E
:102E30000AE0052308E0042306E0032304E002235C
:102E400002E0012300E00023FA6902F0030292008D
:102E50009340BA691343BB613549FB699B08023350
:102E6000BA6941F823203B4B9B68BB613B69DB435C
:102E7000BA691340BB613B685B6803F48013002BA5
:102E800003D0BA693B691343BB61324ABB699360A3
:102E9000304BDB68BB613B69DB43BA691340BB6104
:102EA0003B685B6803F40013002B03D0BA693B69ED
:102EB0001343BB61274ABB69D360264B5B68BB6188
:102EC0003B69DB43BA691340BB613B685B6803F451
:102ED0000033002B03D0BA693B691343BB611D4A21
:102EE000BB6953601B4B1B68BB613B69DB43BA6921
:102EF0001340BB613B685B6803F48033002B03D055
:102F0000BA693B691343BB61124ABB691360FB6931
:102F10000133FB61FB690F2B7FF690AE00BF00BF52
:102F20002437BD465DF8047B704700BF003802407F
:102F30000038014000000240000402400008024046
:102F4000000C024000100240001402400018024031
:102F5000001C0240003C014080B483B000AF7860A8
:102F60000B467B8013467B707B78002B03D07A88DE
:102F70007B689A6103E07B881A047B689A6100BFD2
:102F80000C37BD465DF8047B704780B485B000AF58
:102F900078600B467B807B685B69FB607A88FB68A6
:102FA00013401A04FB68D9437B880B401A437B68A3
:102FB0009A6100BF1437BD465DF8047B704700007E
:102FC00080B586B000AF78607B68002B01D101230B
:102FD00067E27B681B6803F00103002B75D0884B08
:102FE0009B6803F00C03042B0CD0854B9B6803F00B
:102FF0000C03082B12D1824B5B6803F48003B3F5FA
:10300000800F0BD17E4B1B6803F40033002B5BD089
:103010007B685B68002B57D1012342E27B685B68C9
:10302000B3F5803F06D1764B1B68754A43F4803375
:1030300013601DE07B685B68B3F5A02F0CD1704B6B
:103040001B686F4A43F4802313606D4B1B686C4A06
:1030500043F4803313600BE0694B1B68684A23F428
:1030600080331360664B1B68654A23F4802313602A
:103070007B685B68002B13D0FFF75AFA386108E0D1
:10308000FFF756FA02463B69D31A642B01D9032392
:1030900007E25B4B1B6803F40033002BF0D014E015
:1030A000FFF746FA386108E0FFF742FA02463B694B
:1030B000D31A642B01D90323F3E1514B1B6803F4AA
:1030C0000033002BF0D100E000BF7B681B6803F0E9
:1030D0000203002B63D04A4B9B6803F00C03002BC8
:1030E0000BD0474B9B6803F00C03082B1CD1444BBF
:1030F0005B6803F48003002B16D1414B1B6803F07F
:103100000203002B05D07B68DB68012B01D0012373
:10311000C7E13B4B1B6823F0F8027B681B69DB00AF
:10312000374913430B603AE07B68DB68002B20D003
:10313000344B01221A60FFF7FBF9386108E0FFF712
:10314000F7F902463B69D31A022B01D90323A8E100
:103150002B4B1B6803F00203002BF0D0284B1B689D
:1031600023F0F8027B681B69DB00254913430B60E1
:1031700015E0244B00221A60FFF7DAF9386108E005
:10318000FFF7D6F902463B69D31A022B01D9032374
:1031900087E11B4B1B6803F00203002BF0D17B6817
:1031A0001B6803F00803002B36D07B685B69002B9B
:1031B00016D0154B01221A60FFF7BAF9386108E002
:1031C000FFF7B6F902463B69D31A022B01D9032354
:1031D00067E10B4B5B6F03F00203002BF0D01BE0A9
:1031E000094B00221A60FFF7A3F938610EE0FFF7E0
:1031F0009FF902463B69D31A022B07D9032350E1FA
:103200000038024000004742800E4742884B5B6F07
:1032100003F00203002BEAD17B681B6803F0040370
:10322000002B00F097800023FB75814B1B6C03F093
:103230008053002B0FD10023BB607D4B1B6C7C4A5D
:1032400043F0805313647A4B1B6C03F08053BB60D4
:10325000BB680123FB75774B1B6803F48073002B5D
:1032600018D1744B1B68734A43F480731360FFF7E3
:103270005FF9386108E0FFF75BF902463B69D31A52
:10328000022B01D903230CE16A4B1B6803F4807302
:10329000002BF0D07B689B68012B06D1644B1B6F21
:1032A000634A43F0010313671CE07B689B68052BAE
:1032B0000CD15F4B1B6F5E4A43F0040313675C4BFA
:1032C0001B6F5B4A43F0010313670BE0584B1B6F06
:1032D000574A23F001031367554B1B6F544A23F0E1
:1032E000040313677B689B68002B15D0FFF720F958
:1032F00038610AE0FFF71CF902463B69D31A41F234
:103300008832934201D90323CBE0494B1B6F03F072
:103310000203002BEED014E0FFF70AF938610AE04F
:10332000FFF706F902463B69D31A41F2883293420D
:1033300001D90323B5E03E4B1B6F03F00203002BC2
:10334000EED1FB7D012B05D1394B1B6C384A23F0A4
:10335000805313647B689B69002B00F0A180344B81
:103360009B6803F00C03082B5CD07B689B69022BE5
:1033700041D1314B00221A60FFF7DAF8386108E0DA
:10338000FFF7D6F802463B69D31A022B01D9032373
:1033900087E0274B1B6803F00073002BF0D17B689C
:1033A000DA697B681B6A1A437B685B6A9B011A4374
:1033B0007B689B6A5B08013B1B041A437B68DB6AE2
:1033C0001B061B4913434B601B4B01221A60FFF77E
:1033D000AFF8386108E0FFF7ABF802463B69D31A53
:1033E000022B01D903235CE0114B1B6803F000732F
:1033F000002BF0D054E0104B00221A60FFF798F831
:10340000386108E0FFF794F802463B69D31A022BB3
:1034100001D9032345E0064B1B6803F00073002B22
:10342000F0D13DE07B689B69012B07D1012338E097
:103430000038024000700040600047421B4B5B6850
:10344000FB607B689B69012B28D0FB6803F480023A
:103450007B68DB699A4221D1FB6803F03F027B68FD
:103460001B6A9A421AD1FA6847F6C07313407A6809
:10347000526A9201934211D1FB6803F440327B6897
:103480009B6A5B08013B1B049A4207D1FB6803F06F
:1034900070627B68DB6A1B069A4201D0012300E060
:1034A000002318461837BD4680BD00BF00380240D3
:1034B00080B584B000AF786039607B68002B01D1A3
:1034C0000123CCE0684B1B6803F007033A689A427B
:1034D0000CD9654B3A68D2B21A70634B1B6803F083
:1034E00007033A689A4201D00123B8E07B681B6861
:1034F00003F00203002B20D07B681B6803F0040359
:10350000002B05D0594B9B68584A43F4E053936015
:103510007B681B6803F00803002B05D0534B9B68A6
:10352000524A43F460439360504B9B6823F0F0028F
:103530007B689B684D4913438B607B681B6803F075
:103540000103002B44D07B685B68012B07D1474BFC
:103550001B6803F40033002B19D101237FE07B6843
:103560005B68022B03D07B685B68032B07D13F4B62
:103570001B6803F00073002B09D101236FE03B4B64
:103580001B6803F00203002B01D1012367E0374BD6
:103590009B6823F003027B685B68344913438B60AC
:1035A000FEF7C6FFF8600AE0FEF7C2FF0246FB68BE
:1035B000D31A41F28832934201D903234FE02B4BB7
:1035C0009B6803F00C027B685B689B009A42EBD11E
:1035D000254B1B6803F007033A689A420CD2224B32
:1035E0003A68D2B21A70204B1B6803F007033A689E
:1035F0009A4201D0012332E07B681B6803F0040388
:10360000002B08D0194B9B6823F4E0527B68DB68E1
:10361000164913438B607B681B6803F00803002B7B
:1036200009D0124B9B6823F460427B681B69DB0066
:103630000E4913438B6000F021F802460B4B9B6848
:103640001B0903F00F030A49CB5C22FA03F3094A72
:103650001360094B1B681846FEF726FF0023184627
:103660001037BD4680BD00BF003C0240003802401C
:103670007864000804000020080000202DE9B04F05
:1036800090B000AF00237B630023FB6300233B6308
:103690000023BB63594B9B6803F00C03082B0DD030
:1036A000082B00F2A180002B02D0042B03D09BE05A
:1036B000534BBB639BE0534BBB6398E04F4B5B6842
:1036C00003F03F037B634D4B5B6803F48003002BE7
:1036D00028D04A4B5B689B0900223B627A623B6AB6
:1036E000C3F308000021474B03FB01F2002300FB5A
:1036F00003F31344434AA0FB0212FA620A46BA6279
:10370000FA6A1344FB627B6B0022BB61FA61D7E962
:103710000623D7E90A01FDF7C9F902460B4613460D
:10372000FB6353E0354B5B689B0900223B617A6188
:103730003B69C3F3080A4FF0000B52465B464FF05B
:1037400000004FF00001590141EAD26150010246E8
:103750000B46B2EB0A0863EB0B094FF000024FF087
:1037600000034FEA891343EA98634FEA8812B2EBE9
:10377000080463EB09054FF000024FF00003EB0073
:1037800043EA5473E20014461D4614EB0A033B60FF
:1037900045EB0B037B604FF000024FF00003D7E9CD
:1037A000004529468B02214643EA915321468A026D
:1037B000104619467B6B0022BB60FA60D7E90223F2
:1037C000FDF774F902460B461346FB630B4B5B682F
:1037D0001B0C03F0030301335B003B63FA6B3B6B91
:1037E000B2FBF3F3BB6302E0054BBB6300BFBB6BF3
:1037F00018464037BD46BDE8B08F00BF00380240D4
:103800000024F40040787D0180B400AF034B1B68B6
:103810001846BD465DF8047B704700BF04000020D9
:1038200080B500AFFFF7F0FF0246054B9B689B0A8F
:1038300003F007030349CB5C22FA03F3184680BD6B
:10384000003802408864000880B500AFFFF7DCFF55
:103850000246054B9B685B0B03F007030349CB5CF7
:1038600022FA03F3184680BD00380240886400083D
:1038700080B582B000AF78607B68002B01D1012356
:103880007BE07B685B6A002B08D17B685B68B3F5E3
:10389000827F09D07B680022DA6105E07B68002224
:1038A0001A617B6800225A617B6800229A627B68F9
:1038B00093F85130DBB2002B06D17B68002283F8ED
:1038C00050207868FEF75CFB7B68022283F8512069
:1038D0007B681B681A687B681B6822F040021A60CC
:1038E0007B685B6803F482727B689B6803F4044323
:1038F0001A437B68DB6803F400631A437B681B6927
:1039000003F002031A437B685B6903F001031A4367
:103910007B689B6903F400731A437B68DB6903F0DF
:1039200038031A437B681B6A03F0800342EA0301F1
:103930007B689B6A03F400527B681B680A431A6029
:103940007B689B691B0C03F004017B685B6A03F0D6
:1039500010027B681B680A435A607B681B68DA693F
:103960007B681B6822F40062DA617B6800225A657A
:103970007B68012283F85120002318460837BD4692
:1039800080BD80B588B000AFF860B9603B60134679
:10399000FB800023FB77FB6893F85030012B01D1AB
:1039A000022326E1FB68012283F85020FEF7C0FDC8
:1039B000B861FB88FB82FB6893F85130DBB2012BC6
:1039C00002D00223FB770BE1BB68002B02D0FB88FF
:1039D000002B02D10123FB7702E1FB68032283F86D
:1039E0005120FB6800225A65FB68BA681A63FB68BD
:1039F000FA889A86FB68FA88DA86FB6800229A635E
:103A0000FB6800229A87FB680022DA87FB680022A5
:103A10005A64FB6800221A64FB689B68B3F5004F88
:103A20000FD1FB681B681A68FB681B6822F0400214
:103A30001A60FB681B681A68FB681B6842F48042C6
:103A40001A60FB681B681B6803F04003402B07D01B
:103A5000FB681B681A68FB681B6842F040021A602A
:103A6000FB68DB68B3F5006F4BD1FB685B68002B2C
:103A700002D0FB8A012B3ED1FB681B6B1A88FB68C6
:103A80001B68DA60FB681B6B9A1CFB681A63FB6897
:103A9000DB8E9BB2013B9AB2FB68DA862BE0FB68B7
:103AA0001B689B6803F00203022B12D1FB681B6B9F
:103AB0001A88FB681B68DA60FB681B6B9A1CFB6842
:103AC0001A63FB68DB8E9BB2013B9AB2FB68DA8615
:103AD00011E0FEF72DFD0246BB69D31A3A689A42FF
:103AE00003D83B68B3F1FF3F02D13B68002B02D102
:103AF0000323FB7774E0FB68DB8E9BB2002BCED1F7
:103B00004CE0FB685B68002B02D0FB8A012B40D1A4
:103B1000FB681A6BFB681B680C3312781A70FB6821
:103B20001B6B5A1CFB681A63FB68DB8E9BB2013B64
:103B30009AB2FB68DA862CE0FB681B689B6803F08E
:103B40000203022B13D1FB681A6BFB681B680C3352
:103B500012781A70FB681B6B5A1CFB681A63FB68AF
:103B6000DB8E9BB2013B9AB2FB68DA8611E0FEF76E
:103B7000DFFC0246BB69D31A3A689A4203D83B6815
:103B8000B3F1FF3F02D13B68002B02D10323FB7747
:103B900026E0FB68DB8E9BB2002BCDD1BA69396879
:103BA000F86800F0CBFB0346002B02D0FB68202214
:103BB0005A65FB689B68002B0AD100233B61FB68B8
:103BC0001B68DB683B61FB681B689B683B613B696A
:103BD000FB685B6D002B02D00123FB7700E000BF88
:103BE000FB68012283F85120FB68002283F85020F3
:103BF000FB7F18462037BD4680BD80B588B002AF38
:103C0000F860B9603B601346FB800023FB75FB68DE
:103C10005B68B3F5827F12D1FB689B68002B0ED1E5
:103C2000FB68042283F85120FA883B68009313460E
:103C3000BA68B968F86800F0F1F80346EAE0FB6892
:103C400093F85030012B01D10223E3E0FB680122FD
:103C500083F85020FEF76CFC3861FB6893F8513014
:103C6000DBB2012B02D00223FB75CAE0BB68002B3C
:103C700002D0FB88002B02D10123FB75C1E0FB6859
:103C8000042283F85120FB6800225A65FB68BA6859
:103C90009A63FB68FA889A87FB68FA88DA87FB6878
:103CA00000221A63FB6800229A86FB680022DA86EB
:103CB000FB6800221A64FB6800225A64FB689B6858
:103CC000B3F5004F0FD1FB681B681A68FB681B68CF
:103CD00022F040021A60FB681B681A68FB681B68C8
:103CE00022F480421A60FB681B681B6803F04003E3
:103CF000402B07D0FB681B681A68FB681B6842F002
:103D000040021A60FB68DB68002B62D12EE0FB6882
:103D10001B689B6803F00103012B15D1FB681B682E
:103D200003F10C02FB689B6B1278D2B21A70FB682D
:103D30009B6B5A1CFB689A63FB68DB8F9BB2013B51
:103D40009AB2FB68DA8711E0FEF7F2FB02463B69A4
:103D5000D31A3A689A4203D83B68B3F1FF3F02D1C5
:103D60003B68002B02D10323FB754AE0FB68DB8F25
:103D70009BB2002BCBD131E0FB681B689B6803F042
:103D80000103012B13D1FB681B68DA68FB689B6B8E
:103D900092B21A80FB689B6B9A1CFB689A63FB6863
:103DA000DB8F9BB2013B9AB2FB68DA8711E0FEF72A
:103DB000BFFB02463B69D31A3A689A4203D83B6874
:103DC000B3F1FF3F02D13B68002B02D10323FB7507
:103DD00017E0FB68DB8F9BB2002BCDD13A693968C5
:103DE000F86800F045FA0346002B02D0FB68202259
:103DF0005A65FB685B6D002B02D00123FB7500E068
:103E000000BFFB68012283F85120FB68002283F881
:103E10005020FB7D18461837BD4680BD80B58CB05C
:103E200000AFF860B9607A607B800123FB620023F9
:103E300087F82B30FB6893F85030012B01D1022317
:103E40008AE1FB68012283F85020FEF771FB78625B
:103E5000FB6893F8513087F82330FB685B68FB619F
:103E60007B887B8397F82330012B0FD0FB69B3F558
:103E7000827F07D1FB689B68002B03D197F8233022
:103E8000042B03D0022387F82B305BE1BB68002BA7
:103E900005D07B68002B02D07B88002B03D1012347
:103EA00087F82B304EE1FB6893F85130DBB2042BDE
:103EB00003D0FB68052283F85120FB6800225A6575
:103EC000FB687A689A63FB687A88DA87FB687A8885
:103ED0009A87FB68BA681A63FB687A88DA86FB6897
:103EE0007A889A86FB6800221A64FB6800225A646A
:103EF000FB681B681B6803F04003402B07D0FB687E
:103F00001B681A68FB681B6842F040021A60FB6875
:103F1000DB68B3F5006F78D1FB685B68002B02D0DB
:103F20007B8B012B66D1FB681B6B1A88FB681B68B7
:103F3000DA60FB681B6B9A1CFB681A63FB68DB8EFC
:103F40009BB2013B9AB2FB68DA8653E0FB681B68C0
:103F50009B6803F00203022B1BD1FB68DB8E9BB234
:103F6000002B16D0FB6A012B13D1FB681B6B1A8840
:103F7000FB681B68DA60FB681B6B9A1CFB681A63A2
:103F8000FB68DB8E9BB2013B9AB2FB68DA860023AA
:103F9000FB62FB681B689B6803F00103012B19D1CE
:103FA000FB68DB8F9BB2002B14D0FB681B68DA68C0
:103FB000FB689B6B92B21A80FB689B6B9A1CFB6838
:103FC0009A63FB68DB8F9BB2013B9AB2FB68DA878E
:103FD0000123FB62FEF7ACFA02467B6AD31ABA6B86
:103FE0009A4207D8BB6BB3F1FF3F03D0032387F896
:103FF0002B30A7E0FB68DB8E9BB2002BA6D1FB68C1
:10400000DB8F9BB2002BA1D17CE0FB685B68002BAF
:1040100002D07B8B012B6BD1FB681A6BFB681B6892
:104020000C3312781A70FB681B6B5A1CFB681A63FE
:10403000FB68DB8E9BB2013B9AB2FB68DA8657E0E5
:10404000FB681B689B6803F00203022B1CD1FB6812
:10405000DB8E9BB2002B17D0FB6A012B14D1FB68BF
:104060001A6BFB681B680C3312781A70FB681B6BA9
:104070005A1CFB681A63FB68DB8E9BB2013B9AB249
:10408000FB68DA860023FB62FB681B689B6803F011
:104090000103012B19D1FB68DB8F9BB2002B14D0DD
:1040A000FB681B68DA68FB689B6BD2B21A70FB680E
:1040B0009B6B5A1CFB689A63FB68DB8F9BB2013BCE
:1040C0009AB2FB68DA870123FB62FEF731FA0246F7
:1040D0007B6AD31ABA6B9A4203D8BB6BB3F1FF3F2A
:1040E00002D1BB6B002B03D1032387F82B3029E0CF
:1040F000FB68DB8E9BB2002BA2D1FB68DB8F9BB2EF
:10410000002B9DD17A6AB96BF86800F017F9034665
:10411000002B06D0012387F82B30FB6820225A653C
:1041200010E0FB689B68002B0BD100237B61FB68D0
:104130001B68DB687B61FB681B689B687B617B6934
:1041400000E000BFFB68012283F85120FB680022D9
:1041500083F8502097F82B3018463037BD4680BD85
:1041600080B588B000AFF860B9603B601346FB7162
:10417000FEF7DEF90246BB6A9B1A3A681344FB61FC
:10418000FEF7D6F9B861394B1B685B011B0DFA6964
:1041900002FB03F37B6154E03B68B3F1FF3F50D077
:1041A000FEF7C6F90246BB69D31AFA699A4202D9E8
:1041B000FB69002B3DD1FB681B685A68FB681B68D4
:1041C00022F0E0025A60FB685B68B3F5827F11D190
:1041D000FB689B68B3F5004F04D0FB689B68B3F5A0
:1041E000806F07D1FB681B681A68FB681B6822F0A8
:1041F00040021A60FB689B6AB3F5005F0FD1FB6851
:104200001B681A68FB681B6822F400521A60FB687E
:104210001B681A68FB681B6842F400521A60FB684E
:10422000012283F85120FB68002283F850200323E9
:1042300017E07B69002B01D10023FB617B69013B07
:104240007B61FB681B689A68BB681340BA689A4236
:104250000CBF01230023DBB21A46FB799A429BD1A3
:10426000002318462037BD4680BD00BF0400002053
:1042700080B586B002AFF860B9607A60FB685B68B1
:10428000B3F5827F11D1FB689B68B3F5004F04D072
:10429000FB689B68B3F5806F07D1FB681B681A68E1
:1042A000FB681B6822F040021A60FB685B68B3F58C
:1042B000827F2AD1FB689B68B3F5806F12D07B6840
:1042C0000093BB6800228021F868FFF749FF03468E
:1042D000002B2DD0FB685B6D43F02002FB685A6514
:1042E000032326E07B680093BB6800220121F86865
:1042F000FFF736FF0346002B1AD0FB685B6D43F0D7
:104300002002FB685A65032313E07B680093BB68B7
:1043100000220121F868FFF723FF0346002B07D096
:10432000FB685B6D43F02002FB685A65032300E0E5
:10433000002318461037BD4680BD000080B588B008
:1043400002AFF860B9607A601B4B1B681B4AA2FB86
:1043500003235B0D4FF47A7202FB03F37B61FB686E
:104360005B68B3F5827F12D17B680093BB68002243
:104370008021F868FFF7F4FE0346002B16D0FB6897
:104380005B6D43F02002FB685A6503230FE07B69F5
:10439000002B0AD07B69013B7B61FB681B689B6833
:1043A00003F08003802BF2D000E000BF002318460A
:1043B0001837BD4680BD00BF04000020819F5E16F7
:1043C00080B582B000AF78607B68002B01D10123FB
:1043D00041E07B6893F83D30DBB2002B06D17B686F
:1043E000002283F83C207868FDF768FE7B68022293
:1043F00083F83D207B681A687B68043319461046B1
:1044000000F078FA7B68012283F846207B6801225D
:1044100083F83E207B68012283F83F207B680122DD
:1044200083F840207B68012283F841207B680122C9
:1044300083F842207B68012283F843207B680122B5
:1044400083F844207B68012283F845207B680122A1
:1044500083F83D20002318460837BD4680BD000084
:1044600080B485B000AF78607B6893F83D30DBB2F4
:10447000012B01D001234EE07B68022283F83D200E
:104480007B681B68DA687B681B6842F00102DA60AF
:104490007B681B68234A934222D07B681B68B3F178
:1044A000804F1DD07B681B681F4A934218D07B68E1
:1044B0001B681E4A934213D07B681B681C4A9342B8
:1044C0000ED07B681B681B4A934209D07B681B682F
:1044D000194A934204D07B681B68184A934211D151
:1044E0007B681B689B6803F00703FB60FB68062B77
:1044F00010D07B681B681A687B681B6842F0010259
:104500001A6007E07B681B681A687B681B6842F0CA
:1045100001021A60002318461437BD465DF8047B7B
:10452000704700BF00000140000400400008004048
:10453000000C004000040140004001400018004011
:1045400080B582B000AF78607B68002B01D1012379
:1045500041E07B6893F83D30DBB2002B06D17B68ED
:10456000002283F83C207868FDF788FD7B680222F2
:1045700083F83D207B681A687B680433194610462F
:1045800000F0B8F97B68012283F846207B6801229D
:1045900083F83E207B68012283F83F207B6801225C
:1045A00083F840207B68012283F841207B68012248
:1045B00083F842207B68012283F843207B68012234
:1045C00083F844207B68012283F845207B68012220
:1045D00083F83D20002318460837BD4680BD000003
:1045E00080B586B000AFF860B9607A600023FB75D3
:1045F000FB6893F83C30012B01D10223AEE0FB684D
:10460000012283F83C207B680C2B00F29F8001A2E2
:1046100052F823F0494600084D4700084D4700086E
:104620004D470008894600084D4700084D470008DF
:104630004D470008CB4600084D4700084D4700088D
:104640004D4700080B470008FB681B68B96818460F
:1046500000F0F0F9FB681B689A69FB681B6842F080
:1046600008029A61FB681B689A69FB681B6822F064
:1046700004029A61FB681B689969BB681A69FB6848
:104680001B680A439A6164E0FB681B68B9681846B6
:1046900000F040FAFB681B689A69FB681B6842F4EB
:1046A00000629A61FB681B689A69FB681B6822F4C8
:1046B00080629A61FB681B689969BB681B691A0272
:1046C000FB681B680A439A6143E0FB681B68B96892
:1046D000184600F095FAFB681B68DA69FB681B68EE
:1046E00042F00802DA61FB681B68DA69FB681B6844
:1046F00022F00402DA61FB681B68D969BB681A6999
:10470000FB681B680A43DA6123E0FB681B68B96831
:10471000184600F0E9FAFB681B68DA69FB681B6859
:1047200042F40062DA61FB681B68DA69FB681B68A7
:1047300022F48062DA61FB681B68D969BB681B6977
:104740001A02FB681B680A43DA6102E00123FB7569
:1047500000BFFB68002283F83C20FB7D1846183719
:10476000BD4680BD80B584B000AF7860396000235D
:10477000FB737B6893F83C30012B01D10223B4E03A
:104780007B68012283F83C207B68022283F83D206D
:104790007B681B689B68BB60BB6823F07703BB60CA
:1047A000BB6823F47F43BB607B681B68BA689A6070
:1047B0003B681B68B3F5005F3ED0B3F5005F00F2C5
:1047C0008780B3F5805F00F08680B3F5805F7FD887
:1047D000702B1AD0702B7BD8602B50D0602B77D8E1
:1047E000502B3CD0502B73D8402B58D0402B6FD837
:1047F000302B64D0302B6BD8202B60D0202B67D887
:10480000002B5CD0102B5AD062E07B6818683B68A4
:1048100099683B685A683B68DB6800F035FB7B6849
:104820001B689B68BB60BB6843F07703BB607B6819
:104830001B68BA689A604FE07B6818683B689968A3
:104840003B685A683B68DB6800F01EFB7B681B68AE
:104850009A687B681B6842F480429A603CE07B68FF
:1048600018683B6859683B68DB681A4600F092FAA2
:104870007B681B685021184600F0EBFA2CE07B683F
:1048800018683B6859683B68DB681A4600F0B1FA63
:104890007B681B686021184600F0DBFA1CE07B682F
:1048A00018683B6859683B68DB681A4600F072FA82
:1048B0007B681B684021184600F0CBFA0CE07B684F
:1048C0001A683B681B681946104600F0C2FA03E0FC
:1048D0000123FB7300E000BF7B68012283F83D20C9
:1048E0007B68002283F83C20FB7B18461037BD46CE
:1048F00080BD000080B485B000AF786039607B680F
:104900001B68FB607B68404A934213D07B68B3F11D
:10491000804F0FD07B683D4A93420BD07B683C4A66
:10492000934207D07B683B4A934203D07B683A4A64
:10493000934208D1FB6823F07003FB603B685B681F
:10494000FA681343FB607B682F4A93422BD07B6845
:10495000B3F1804F27D07B682C4A934223D07B68E9
:104960002B4A93421FD07B682A4A93421BD07B6814
:10497000294A934217D07B68284A934213D07B6818
:10498000274A93420FD07B68264A93420BD07B681C
:10499000254A934207D07B68244A934203D07B6820
:1049A000234A934208D1FB6823F44073FB603B68C1
:1049B000DB68FA681343FB60FB6823F080023B6806
:1049C0005B691343FB607B68FA681A603B689A680E
:1049D0007B68DA623B681A687B689A627B680A4A7D
:1049E000934203D07B680C4A934203D13B681A6917
:1049F0007B681A637B6801225A6100BF1437BD4689
:104A00005DF8047B704700BF0000014000040040D7
:104A100000080040000C004000040140004001403C
:104A2000004401400048014000180040001C0040C4
:104A30000020004080B487B000AF786039607B68A8
:104A40001B6A23F001027B681A627B681B6A7B6128
:104A50007B685B683B617B689B69FB60FB6823F05C
:104A60007003FB60FB6823F00303FB603B681B687B
:104A7000FA681343FB607B6923F002037B613B68A8
:104A80009B687A6913437B617B68204A934203D019
:104A90007B681F4A93420CD17B6923F008037B613A
:104AA0003B68DB687A6913437B617B6923F004030D
:104AB0007B617B68154A934203D07B68144A93421A
:104AC00011D13B6923F480733B613B6923F400738C
:104AD0003B613B685B693A6913433B613B689B6997
:104AE0003A6913433B617B683A695A607B68FA68AC
:104AF0009A613B685A687B685A637B687A691A6274
:104B000000BF1C37BD465DF8047B704700000140C4
:104B10000004014080B487B000AF786039607B68E2
:104B20001B6A23F010027B681A627B681B6A7B6138
:104B30007B685B683B617B689B69FB60FB6823F477
:104B4000E043FB60FB6823F44073FB603B681B6839
:104B50001B02FA681343FB607B6923F020037B612F
:104B60003B689B681B017A6913437B617B68224A1F
:104B7000934203D07B68214A93420DD17B6923F095
:104B800080037B613B68DB681B017A6913437B61AF
:104B90007B6923F040037B617B68174A934203D013
:104BA0007B68164A934213D13B6923F480633B61CF
:104BB0003B6923F400633B613B685B699B003A6996
:104BC00013433B613B689B699B003A6913433B611C
:104BD0007B683A695A607B68FA689A613B685A68F0
:104BE0007B689A637B687A691A6200BF1C37BD468E
:104BF0005DF8047B704700BF0000014000040140E5
:104C000080B487B000AF786039607B681B6A23F49A
:104C100080727B681A627B681B6A7B617B685B6859
:104C20003B617B68DB69FB60FB6823F07003FB6022
:104C3000FB6823F00303FB603B681B68FA681343BF
:104C4000FB607B6923F400737B613B689B681B02FC
:104C50007A6913437B617B68214A934203D07B6866
:104C6000204A93420DD17B6923F400637B613B684A
:104C7000DB681B027A6913437B617B6923F48063E1
:104C80007B617B68164A934203D07B68154A934246
:104C900013D13B6923F480533B613B6923F40053F8
:104CA0003B613B685B691B013A6913433B613B68AD
:104CB0009B691B013A6913433B617B683A695A60FF
:104CC0007B68FA68DA613B685A687B68DA637B68FC
:104CD0007A691A6200BF1C37BD465DF8047B7047D5
:104CE000000001400004014080B487B000AF78604C
:104CF00039607B681B6A23F480527B681A627B6888
:104D00001B6A3B617B685B687B617B68DB69FB607E
:104D1000FB6823F4E043FB60FB6823F44073FB6013
:104D20003B681B681B02FA681343FB603B6923F472
:104D300000533B613B689B681B033A6913433B612B
:104D40007B68124A934203D07B68114A934209D18F
:104D50007B6923F480437B613B685B699B017A69D3
:104D600013437B617B687A695A607B68FA68DA6111
:104D70003B685A687B681A647B683A691A6200BFAC
:104D80001C37BD465DF8047B704700BF0000014042
:104D90000004014080B487B000AFF860B9607A6069
:104DA000FB681B6A7B61FB681B6A23F00102FB68DE
:104DB0001A62FB689B693B613B6923F0F0033B612E
:104DC0007B681B013A6913433B617B6923F00A034B
:104DD0007B617A69BB6813437B61FB683A699A61BE
:104DE000FB687A691A6200BF1C37BD465DF8047B18
:104DF000704780B487B000AFF860B9607A60FB6834
:104E00001B6A23F01002FB681A62FB689B697B61D6
:104E1000FB681B6A3B617B6923F470437B617B68A1
:104E20001B037A6913437B613B6923F0A0033B6159
:104E3000BB681B013A6913433B61FB687A699A615D
:104E4000FB683A691A6200BF1C37BD465DF8047BF7
:104E5000704780B485B000AF786039607B689B682C
:104E6000FB60FB6823F07003FB603A68FB68134348
:104E700043F00703FB607B68FA689A6000BF143751
:104E8000BD465DF8047B704780B487B000AFF86022
:104E9000B9607A603B60FB689B687B617B6923F447
:104EA0007F437B613B681A027B681A43BB681343EC
:104EB0007A6913437B61FB687A699A6000BF1C378B
:104EC000BD465DF8047B704780B485B000AF786064
:104ED00039607B6893F83C30012B01D102235AE002
:104EE0007B68012283F83C207B68022283F83D2006
:104EF0007B681B685B68FB607B681B689B68BB60AA
:104F0000FB6823F07003FB603B681B68FA6813437F
:104F1000FB607B681B68FA685A607B681B68214AE3
:104F2000934222D07B681B68B3F1804F1DD07B6811
:104F30001B681D4A934218D07B681B681B4A93422A
:104F400013D07B681B681A4A93420ED07B681B689B
:104F5000184A934209D07B681B68174A934204D0D1
:104F60007B681B68154A93420CD1BB6823F0800311
:104F7000BB603B685B68BA681343BB607B681B68B7
:104F8000BA689A607B68012283F83D207B68002222
:104F900083F83C20002318461437BD465DF8047B97
:104FA000704700BF000001400004004000080040BE
:104FB000000C004000040140004001400018004087
:104FC00080B582B000AF78607B68002B01D10123EF
:104FD0003FE07B6893F83D30DBB2002B06D17B6865
:104FE000002283F83C207868FDF7EAF87B682422E9
:104FF00083F83D207B681B68DA687B681B6822F4B5
:105000000052DA60786800F029F87B681B681A693A
:105010007B681B6822F490421A617B681B685A699E
:105020007B681B6822F02A025A617B681B68DA6879
:105030007B681B6842F40052DA607B6800221A64C5
:105040007B68202283F83D207B68202283F83E2065
:10505000002318460837BD4680BD00002DE9B04F3B
:10506000C0B000AFC7F8F400D7F8F4301B681B6974
:1050700023F44050D7F8F430D968D7F8F4301A68E0
:1050800040EA01031361D7F8F4309A68D7F8F43096
:105090001B691A43D7F8F4305B691A43D7F8F43028
:1050A000DB691343C7F8F830D7F8F4301B68DB68C6
:1050B00023F4164121F00C01D7F8F4301A68D7F820
:1050C000F8300B43D360D7F8F4301B685B6923F4E6
:1050D0004070D7F8F4309969D7F8F4301A6840EA8C
:1050E00001035361D7F8F4301A688F4B9A4205D008
:1050F000D7F8F4301A688D4B9A4204D1FEF7A4FB1E
:10510000C7F8FC0003E0FEF78BFBC7F8FC00D7F8FC
:10511000F430DB69B3F5004F40F00C81D7F8FC3078
:105120000022C7F8E830C7F8EC20D7E93A45224614
:105130002B469118B9655B41FB65D7E916232146DB
:1051400012EB0108294643EB01094FF000024FF032
:1051500000034FEAC90343EA58734FEAC802904676
:105160009946234618EB0303C7F8E0302B4649EB7A
:105170000303C7F8E430D7F8F4305B680022C7F8BF
:10518000D830C7F8DC20D7E936120B46DB183B6570
:10519000134642EB03037B65D7E91423D7E93801B3
:1051A000FBF784FC02460B46614BA3FB02235B0921
:1051B0001C01D7F8FC300022C7F8D030C7F8D42043
:1051C000D7E9348942464B469118B9645B41FB6488
:1051D000D7E91223414612EB010A494643EB010B82
:1051E0004FF000024FF000034FEACB0343EA5A733B
:1051F0004FEACA0292469B4643461AEB0303C7F89E
:10520000C8304B464BEB0303C7F8CC30D7F8F4302B
:105210005B680022C7F8C030C7F8C420D7E9301255
:105220000B46DB183B64134642EB03037B64D7E970
:105230001023D7E93201FBF739FC02460B46114631
:105240003B4BA3FB01235B09642202FB03F3CB1A54
:10525000DB0003F13202364BA3FB02235B095B0048
:1052600003F4F8731C44D7F8FC300022C7F8B830B8
:10527000C7F8BC20D7E92E8942464B469118B9633E
:105280005B41FB63D7E90E23414651183963494618
:105290004B417B634FF000024FF00003D7E90CABAA
:1052A0005946CB00514643EA51735146CA00104655
:1052B0001946034642469B18C7F8B0304B460A468B
:1052C00042EB0303C7F8B430D7F8F4305B68002230
:1052D000C7F8A830C7F8AC20D7E92A120B46DB186C
:1052E000BB62134642EB0303FB62D7E90A23D7E90B
:1052F0002C01FBF7DBFB02460B460D4BA3FB021315
:105300005B09642101FB03F3D31ADB003233084A43
:10531000A2FB03235B0903F00702D7F8F4301B68F4
:1053200022449A6006E100BF0010014000140140D1
:105330001F85EB51D7F8FC300022C7F8A030C7F822
:10534000A420D7E9288942464B46911839625B412F
:105350007B62D7E9082341465418494643EB0105CF
:105360004FF000024FF00003EB0043EA5473E200F9
:1053700014461D464346E318C7F898304B4645EBA4
:105380000303C7F89C30D7F8F4305B680022C7F8F5
:105390009030C7F894204FF000024FF00003D7E997
:1053A000244529468B00214643EA917321468A0011
:1053B000D7E92601FBF77AFB02460B46604BA3FBBD
:1053C00002235B091C01D7F8FC300022C7F88830A3
:1053D000C7F88C20D7E9228942464B469118B9611B
:1053E0005B41FB61D7E906234146511839614946C3
:1053F0004B417B614FF000024FF00003D7E904AB53
:105400005946CB00514643EA51735146CA001046F3
:105410001946034642469B18C7F880304B460A4659
:1054200042EB0303C7F88430D7F8F4305B680022FE
:10543000BB67FA674FF000024FF00003D7E91E89FF
:1054400049468B00414643EA917341468A00D7E9B9
:105450002001FBF72BFB02460B461146384BA3FB02
:1054600001235B09642202FB03F3CB1A1B013233D5
:10547000334AA2FB03235B0903F0F0031C44D7F873
:10548000FC3000223B677A67D7E91C8942464B46CD
:105490009118B9605B41FB60D7E90223414651187E
:1054A000396049464B417B604FF000024FF00003EA
:1054B000D7E900AB5946CB00514643EA51735146F8
:1054C000CA0010461946034642469B18BB664B4627
:1054D0000A4642EB0303FB66D7F8F4305B68002210
:1054E0003B667A664FF000024FF00003D7E9188957
:1054F00049468B00414643EA917341468A00D7E909
:105500001A01FBF7D3FA02460B460D4BA3FB02131D
:105510005B09642101FB03F3D31A1B013233084AF0
:10552000A2FB03235B0903F00F02D7F8F4301B68DA
:1055300022449A6000BF07F58077BD46BDE8B08F72
:105540001F85EB51002310B50446C0E90033C0E9C4
:105550000433836081814366C281836119460822D6
:105560005C3000F0E5F9054B6362054BA362054B27
:10557000E362054B2462236310BD00BF815700081E
:10558000A3570008DB570008FF570008024A0349E9
:10559000034800F069B800BF10000020C96200088D
:1055A0001C00002041680C4B994210B5044601D004
:1055B00000F08AFEA168094B994202D0204600F013
:1055C00083FEE168064B994204D02046BDE81040B6
:1055D00000F07ABE10BD00BFA831002010320020BC
:1055E0007832002010B50B4B0B4C0C4A1A60204649
:1055F00000220421FFF7A6FF04F16800012209211F
:10560000FFF7A0FF04F1D0000222BDE810401221F4
:10561000FFF798BFE0320020A83100208D55000828
:10562000014800F0FDB900BFE9320020014800F058
:10563000F8B900BFE932002010B50446FFF7F0FFCB
:10564000236A1BB1BDE81040FFF7F0BF044B236293
:10565000044B1B68002BF5D1FFF7C4FFF2E700BF36
:10566000A5550008E03200202DE9F843074688469A
:1056700014460026D4E90195B9F1010905D524683D
:10568000002CF7D13046BDE8F883AB89012B07D950
:10569000B5F90E30013303D029463846C0470643DA
:1056A0006835E9E70FB407B5064904AB086853F855
:1056B000042B8168019300F0D7FA03B05DF804EB86
:1056C00004B0704768000020036A70B5846805461E
:1056D0000E460BB9FFF7B0FF636EDB0705D4A38955
:1056E000980502D4A06D00F09BF9A389190713D582
:1056F00023698BB1013EA36816F8011F013BA3602B
:10570000E9B9002B2EDA22460A21284600F07BF860
:10571000013007D00A2507E02146284600F0B0F8FE
:105720000028E7D04FF0FF35636EDA0705D4A38970
:105730009B0502D4A06D00F074F9284670BD002BC3
:1057400004DAA2699A4206DC0A2904D023685A1CAA
:1057500022601970CFE72246284600F054F8013045
:10576000C9D1DFE723680A255A1C22601D70DBE7D8
:10577000024B01461868FFF7A7BF00BF6800002072
:1057800010B50C46B1F90E1000F0FCF80028ABBFC4
:10579000636DA3891B1823F48053ACBF6365A38199
:1057A00010BD2DE9F0411F468B89DB0505460C46EF
:1057B000164605D5B1F90E100223002200F0D0F8EC
:1057C000A389B4F90E1023F48053A38132463B46DB
:1057D0002846BDE8F04100F0E7B810B50C46B1F935
:1057E0000E1000F0BDF8431CA38915BF606523F4BB
:1057F000805343F48053A38118BFA38110BDB1F936
:105800000E1000F09DB8F8B50E461446054618B1C6
:10581000036A0BB9FFF710FFA369A360A3891A07F6
:1058200025D523691BB323682269981A6369F6B2E8
:105830008342374604DC2146284600F045FDE0B9A6
:10584000A368013BA36023685A1C22601E70626932
:10585000431C9A4204D0A389DB0706D50A2E04D143
:105860002146284600F030FD38B93846F8BD2146BB
:10587000284600F005F80028D5D04FF0FF37F4E7B0
:1058800038B52A4B054618680C4618B1036A0BB99F
:10589000FFF7D2FEA389B4F90C20180722D4D90649
:1058A00007D409232B6042F04003A3814FF0FF305F
:1058B00034E0580712D5616B41B104F144039942B9
:1058C00002D0284600F0AEF800236363A38923F0DA
:1058D0002403A3810023636023692360A38943F029
:1058E0000803A38123694BB9A38903F42073B3F59B
:1058F000007F03D02146284600F034FDA089B4F98A
:105900000C2010F001030AD00023A36063695B42FE
:10591000A361236943B910F08000C4D138BD810769
:1059200058BF6369A360F4E70020F7E76800002030
:1059300002440346934200D1704703F8011BF9E784
:1059400038B5064D0023044608462B60FCF7E3FCFF
:10595000431C02D12B6803B1236038BDE432002020
:1059600038B5074D04460846114600222A601A46FB
:10597000FCF7F8FC431C02D12B6803B1236038BD4F
:10598000E432002038B5074D04460846114600228F
:105990002A601A46FCF786FC431C02D12B6803B12F
:1059A000236038BDE432002038B5074D0446084670
:1059B000114600222A601A46FCF791FC431C02D1D2
:1059C0002B6803B1236038BDE4320020014B186816
:1059D000704700BF6800002070B50D4D0D4C641B72
:1059E000A4100026A64209D10B4D0C4C00F028FD56
:1059F000641BA4100026A64205D170BD55F8043BD7
:105A000098470136EEE755F8043B98470136F2E730
:105A1000CC640008CC640008CC640008D0640008A2
:105A20007047704737B5002944D051F8043C0190C5
:105A3000002BA1F10404B8BFE41800F0DFF81E4AFF
:105A40000198136833B96360146003B0BDE8304057
:105A500000F0DAB8A34208D9256861198B4201BF6A
:105A600019685B6849192160EDE71A465B680BB15C
:105A7000A342FAD911685518A5420BD124682144D4
:105A80005418A3421160E0D11C685B6853600C4459
:105A90001460DAE702D90C230360D6E725686119A0
:105AA0008B4204BF19685B68636004BF49192160B9
:105AB0005460CAE703B030BDEC32002070B50E4E22
:105AC0000C463168054611B900F0AAFC3060214649
:105AD000284600F0A5FC431C0AD0C41C24F0030493
