:020000040800F2
:100000000000022029210008E51E0008EF1E00085C
:10001000F51E0008FB1E0008011F0008000000007C
:10002000000000000000000000000000071F0008A2
:10003000151F000800000000231F0008311F0008E2
:100040007921000879210008792100087921000828
:100050007921000879210008792100087921000818
:100060007921000879210008792100087921000808
:1000700079210008792100087921000879210008F8
:1000800079210008792100087921000879210008E8
:1000900079210008792100087921000879210008D8
:1000A00079210008792100087921000879210008C8
:1000B00079210008792100087921000879210008B8
:1000C00079210008792100087921000879210008A8
:1000D0007921000879210008792100087921000898
:1000E0007921000879210008792100087921000888
:1000F0003D1F0008511F00087921000879210008E0
:100100007921000879210008792100087921000867
:100110007921000879210008792100087921000857
:10012000651F00087921000879210008792100085D
:10013000792100080000000000000000792100087B
:100140007921000879210008792100087921000827
:100150007921000879210008792100087921000817
:100160007921000879210008792100087921000807
:10017000792100087921000800000000000000003B
:08018000792100087921000833
:1001900010B5054C237833B9044B13B10448AFF3C1
:1001A00000800123237010BD1C050020000000000A
:1001B00074CC000808B5034B1BB103490348AFF3E7
:1001C000008008BD000000002005002074CC00085D
:1001D00001F0FF01102A2BDB10F0070F08D010F8F8
:1001E000013B013A8B422DD010F0070F42B3F6D1FC
:1001F000F0B441EA012141EA014122F007047FF015
:1002000000070023F0E80256083C85EA010586EA6B
:10021000010685FA47F5A3FA87F586FA47F6A5FAA7
:1002200087F68EB9EED1F0BC01F0FF0102F00702B3
:1002300032B110F8013B013A83EA010313B1F8D15E
:100240000020704701387047002D06BF354603383F
:10025000073815F0010F07D1013015F4807F02BF78
:10026000013015F4C03F0130F0BC0138704700BFC9
:10027000034613F8012B002AFBD1181A01387047E6
:1002800081F0004102E000BF83F0004330B54FEA47
:1002900041044FEA430594EA050F08BF90EA020FB4
:1002A0001FBF54EA000C55EA020C7FEA645C7FEA47
:1002B000655C00F0E2804FEA5454D4EB5555B8BF6A
:1002C0006D420CDD2C4480EA020281EA030382EADB
:1002D000000083EA010180EA020281EA0303362D6D
:1002E00088BF30BD11F0004F4FEA01314FF4801C40
:1002F0004CEA113102D0404261EB410113F0004F52
:100300004FEA03334CEA133302D0524263EB430308
:1003100094EA050F00F0A780A4F10104D5F1200EA6
:100320000DDB02FA0EFC22FA05F2801841F1000101
:1003300003FA0EF2801843FA05F359410EE0A5F1D5
:1003400020050EF1200E012A03FA0EFC28BF4CF006
:10035000020C43FA05F3C01851EBE37101F00045BC
:1003600007D54FF0000EDCF1000C7EEB00006EEBC9
:100370000101B1F5801F1BD3B1F5001F0CD3490853
:100380005FEA30004FEA3C0C04F101044FEA4452AA
:1003900012F5800F80F09A80BCF1004F08BF5FEA31
:1003A000500C50F1000041EB045141EA050130BD11
:1003B0005FEA4C0C404141EB0101013C28BFB1F523
:1003C000801FE9D291F0000F04BF01460020B1FA6E
:1003D00081F308BF2033A3F10B03B3F120020CDA41
:1003E0000C3208DD02F1140CC2F10C0201FA0CF01F
:1003F00021FA02F10CE002F11402D8BFC2F1200C84
:1004000001FA02F120FA0CFCDCBF41EA0C01904039
:10041000E41AA2BF01EB0451294330BD6FEA040482
:100420001F3C1CDA0C340EDC04F11404C4F120026D
:1004300020FA04F001FA02F340EA030021FA04F37F
:1004400045EA030130BDC4F10C04C4F1200220FAD6
:1004500002F001FA04F340EA0300294630BD21FA14
:1004600004F0294630BD94F0000F83F4801306BFDA
:1004700081F480110134013D4EE77FEA645C18BFCE
:100480007FEA655C29D094EA050F08BF90EA020F65
:1004900005D054EA000C04BF1946104630BD91EA5D
:1004A000030F1EBF0021002030BD5FEA545C05D160
:1004B0004000494128BF41F0004130BD14F580049F
:1004C0003CBF01F5801130BD01F0004545F0FE4113
:1004D00041F470014FF0000030BD7FEA645C1ABF48
:1004E000194610467FEA655C1CBF0B46024650EA7F
:1004F000013406BF52EA033591EA030F41F40021AB
:1005000030BD00BF90F0000F04BF0021704730B530
:100510004FF4806404F132044FF000054FF0000105
:1005200050E700BF90F0000F04BF0021704730B5C6
:100530004FF4806404F1320410F0004548BF40429B
:100540004FF000013EE700BF42004FEAE2014FEAF0
:1005500031014FEA02701FBF12F07F4393F07F4FCB
:1005600081F06051704732F07F4208BF704793F0CE
:100570007F4F04BF41F40021704730B54FF46074E1
:1005800001F0004521F000411CE700BF50EA0102E4
:1005900008BF704730B54FF000050AE050EA01028D
:1005A00008BF704730B511F0004502D5404261EBFD
:1005B00041014FF4806404F132045FEA915C3FF43E
:1005C000D8AE4FF003025FEADC0C18BF03325FEADB
:1005D000DC0C18BF033202EBDC02C2F1200300FA8C
:1005E00003FC20FA02F001FA03FE40EA0E0021FAB1
:1005F00002F11444BDE600BF70B54FF0FF0C4CF49F
:10060000E06C1CEA11541DBF1CEA135594EA0C0F50
:1006100095EA0C0F00F0DEF82C4481EA030621EA8B
:100620004C5123EA4C5350EA013518BF52EA0335C6
:1006300041F4801143F4801338D0A0FB02CE4FF078
:100640000005E1FB02E506F00042E0FB03E54FF0A8
:100650000006E1FB03569CF0000F18BF4EF0010EA0
:10066000A4F1FF04B6F5007F64F5407404D25FEA9C
:100670004E0E6D4146EB060642EAC62141EA55514F
:100680004FEAC52040EA5E504FEACE2EB4F1FD0C91
:1006900088BFBCF5E06F1ED8BEF1004F08BF5FEA0F
:1006A000500E50F1000041EB045170BD06F00046C1
:1006B00046EA010140EA020081EA0301B4EB5C046E
:1006C000C2BFD4EB0C0541EA045170BD41F4801166
:1006D0004FF0000E013C00F3AB8014F1360FDEBF8B
:1006E000002001F0004170BDC4F10004203C35DA67
:1006F0000C341BDC04F11404C4F1200500FA05F3EA
:1007000020FA04F001FA05F240EA020001F000428A
:1007100021F0004110EBD37021FA04F642EB060100
:100720005EEA430E08BF20EAD37070BDC4F10C042A
:10073000C4F1200500FA04F320FA05F001FA04F2EE
:1007400040EA020001F0004110EBD37041F10001DA
:100750005EEA430E08BF20EAD37070BDC4F12005E5
:1007600000FA05F24EEA020E20FA04F301FA05F24D
:1007700043EA020321FA04F001F0004121FA04F2F5
:1007800020EA020000EBD3705EEA430E08BF20EAC5
:10079000D37070BD94F0000F0FD101F000464000FF
:1007A00041EB010111F4801F08BF013CF7D041EA81
:1007B000060195F0000F18BF704703F00046520085
:1007C00043EB030313F4801F08BF013DF7D043EA56
:1007D0000603704794EA0C0F0CEA135518BF95EA0C
:1007E0000C0F0CD050EA410618BF52EA4306D1D193
:1007F00081EA030101F000414FF0000070BD50EAB2
:10080000410606BF1046194652EA430619D094EA3B
:100810000C0F02D150EA013613D195EA0C0F05D125
:1008200052EA03361CBF104619460AD181EA030179
:1008300001F0004141F0FE4141F470014FF0000031
:1008400070BD41F0FE4141F4780170BD70B54FF0CC
:10085000FF0C4CF4E06C1CEA11541DBF1CEA13554C
:1008600094EA0C0F95EA0C0F00F0A7F8A4EB05042E
:1008700081EA030E52EA03354FEA013100F0888025
:100880004FEA03334FF0805545EA131343EA1263EE
:100890004FEA022245EA111545EA10654FEA0026A3
:1008A0000EF000419D4208BF964244F1FD0404F55C
:1008B000407402D25B084FEA3202B61A65EB0305B8
:1008C0005B084FEA32024FF480104FF4002CB6EB75
:1008D000020E75EB030E22BFB61A754640EA0C00F5
:1008E0005B084FEA3202B6EB020E75EB030E22BF35
:1008F000B61A754640EA5C005B084FEA3202B6EB76
:10090000020E75EB030E22BFB61A754640EA9C0034
:100910005B084FEA3202B6EB020E75EB030E22BF04
:10092000B61A754640EADC0055EA060E18D04FEAC2
:10093000051545EA16754FEA06164FEAC30343EA62
:1009400052734FEAC2025FEA1C1CC0D111F4801F2F
:100950000BD141EA00014FF000004FF0004CB6E728
:1009600011F4801F04BF01430020B4F1FD0C88BFC7
:10097000BCF5E06F3FF6AFAEB5EB030C04BFB6EBD2
:10098000020C5FEA500C50F1000041EB045170BDC5
:100990000EF0004E4EEA113114EB5C04C2BFD4EBF2
:1009A0000C0541EA045170BD41F480114FF0000E76
:1009B000013C90E645EA060E8DE60CEA135594EAF2
:1009C0000C0F08BF95EA0C0F3FF43BAF94EA0C0FF5
:1009D0000AD150EA01347FF434AF95EA0C0F7FF46A
:1009E00025AF104619462CE795EA0C0F06D152EABE
:1009F00003353FF4FDAE1046194622E750EA4106A2
:100A000018BF52EA43067FF4C5AE50EA41047FF4B2
:100A10000DAF52EA43057FF4EBAE12E74FF0FF3C17
:100A200006E000BF4FF0010C02E000BF4FF0010CE8
:100A30004DF804CD4FEA410C7FEA6C5C4FEA430C61
:100A400018BF7FEA6C5C1BD001B050EA410C0CBFB0
:100A500052EA430C91EA030F02BF90EA020F002012
:100A6000704710F1000F91EA030F58BF994208BF79
:100A700090422CBFD8176FEAE37040F00100704736
:100A80004FEA410C7FEA6C5C02D150EA013C07D18D
:100A90004FEA430C7FEA6C5CD6D152EA033CD3D0D8
:100AA0005DF8040B704700BF8446104662468C46D2
:100AB0001946634600E000BF01B5FFF7B7FF002805
:100AC00048BF10F1000F01BD4DF808EDFFF7F4FF2E
:100AD0000CBF012000205DF808FB00BF4DF808EDB9
:100AE000FFF7EAFF34BF012000205DF808FB00BFDC
:100AF0004DF808EDFFF7E0FF94BF012000205DF8FE
:100B000008FB00BF4DF808EDFFF7CEFF94BF0120B2
:100B100000205DF808FB00BF4DF808EDFFF7C4FFAB
:100B200034BF012000205DF808FB00BF4FEA410CF4
:100B30007FEA6C5C02D150EA013C0AD14FEA430CD7
:100B40007FEA6C5C02D152EA033C02D14FF0000014
:100B500070474FF0010070474FEA410212F5001252
:100B600015D211D56FF47873B3EB625212D94FEAF4
:100B7000C12343F0004343EA505311F0004F23FADE
:100B800002F018BF404270474FF00000704750EA33
:100B9000013005D111F0004008BF6FF000407047F0
:100BA0004FF00000704700BF53B94AB9002908BF91
:100BB00000281CBF4FF0FF314FF0FF3000F070B93C
:100BC000ADF1080C6DE904CE00F006F8DDF804E0A4
:100BD000DDE9022304B070472DE9F047089E0D4679
:100BE00004460F46002B4AD18A42944665D9B2FA90
:100BF00082F343B102FA03FCC3F120029F4020FAC2
:100C000002F217439C404FEA1C4E1FFA8CF5B7FBCB
:100C1000FEF1220C0EFB117742EA074201FB05F0C0
:100C200090420AD91CEB020201F1FF3780F01C81CF
:100C3000904240F2198102396244121AA4B2B2FB06
:100C4000FEF00EFB102244EA024400FB05F5A5422B
:100C50000AD91CEB040400F1FF3280F00781A542A1
:100C600040F204816444023840EA0140641B0021E0
:100C70001EB1DC400023C6E90043BDE8F0878B428B
:100C800008D9002E00F0ED800021C6E900050846D5
:100C9000BDE8F087B3FA83F1002949D1AB4202D312
:100CA000824200F2F880841A65EB030201201746A5
:100CB000002EE2D0C6E90047DFE702B9FFDEB2FA54
:100CC00082F3002B40F090808A1A4FEA1C471FFAEB
:100CD0008CFE0121B2FBF7F507FB1520220C42EA3E
:100CE00000420EFB05F0904208D91CEB020205F110
:100CF000FF3802D2904200F2CB804546121AA4B2CD
:100D0000B2FBF7F007FB102244EA02440EFB00FEA0
:100D1000A64508D91CEB040400F1FF3202D2A64517
:100D200000F2BB801046A4EB0E0440EA05409FE7AA
:100D3000C1F120078B4022FA07FC4CEA030C05FAAC
:100D400001F420FA07F3FD404FEA1C492343B5FBA9
:100D5000F9F81FFA8CFE09FB18551C0C44EA0544EF
:100D600008FB0EF5A54202FA01F200FA01F00BD9D8
:100D70001CEB040408F1FF3A80F08880A54240F2A1
:100D80008580A8F102086444641B9DB2B4FBF9F3AA
:100D900009FB134445EA044403FB0EFEA64508D9AB
:100DA0001CEB040403F1FF356CD2A6456AD9023B63
:100DB000644443EA0843A3FB0295A4EB0E04AC424F
:100DC000C846AE4656D353D056B1B0EB080264EBDA
:100DD0000E0404FA07F7CA40CC401743C6E9007472
:100DE00018460021BDE8F087C3F1200102FA03FC98
:100DF00020FA01F225FA01F19D402A434FEA1C47EF
:100E00001FFA8CFEB1FBF7F007FB1015110C41EA3D
:100E1000054100FB0EF58D4204FA03F408D91CEBE2
:100E2000010100F1FF382FD28D422DD902386144E3
:100E3000491B92B2B1FBF7F507FB151142EA0142DB
:100E400005FB0EF1914208D91CEB020205F1FF38B7
:100E500016D2914214D9023D6244521A45EA004129
:100E600038E73146304608E73946E6E61046FBE605
:100E70004845A9D2B9EB020865EB0C0E013BA3E78C
:100E80004546EAE72B4694E74046D1E7D0467BE764
:100E9000023D624432E708460AE76444023842E70A
:100EA000704700BF80B500AF01F0B8FB00F03AF822
:100EB000194B01221A6000F0FFFB00F0DDFB00F08F
:100EC000D3F800F0E3F900F097F800F003F900F030
:100ED00089F900F0A7FB00F0C5FA00F07FFB00F0F5
:100EE0006DFA00F057FB00F02DF900F0F1FA4FF425
:100EF000FA6001F005FC05F021FD074B02221A60A3
:100F0000064804F0A3F8064804F008F906F094FE39
:100F10004FF0FF33184680BD7C0000E090060020B3
:100F20008808002080B594B000AF07F1200330227C
:100F30000021184609F07BFE07F10C0300221A601D
:100F40005A609A60DA601A610023BB60284B1B6C00
:100F5000274A43F080531364254B1B6C03F08053E6
:100F6000BB60BB6800237B60224B1B68214A43F4B3
:100F7000804313601F4B1B6803F480437B607B68D6
:100F800001233B624FF480337B620223BB634FF447
:100F90008003FB6308233B6432237B640223BB642E
:100FA0000423FB6407F12003184602F099FD034671
:100FB000002B01D000F058FC0F23FB6002233B61A3
:100FC00000237B614FF48053BB610023FB6107F179
:100FD0000C030121184602F0FBFF0346002B01D051
:100FE00000F042FC03F0DAF800BF5037BD4680BD88
:100FF000003802400070004080B500AF174B184A1F
:101000001A60164B00225A60144B00229A60134B50
:1010100000221A61114B00221A76104B002283F82D
:1010200020200E4B0022DA620C4B0E4A9A620B4BC8
:101030000022DA60094B0122DA61084B002283F8B2
:101040003020064B00225A61044801F07DFB034624
:10105000002B01D000F008FC00BF80BD3805002047
:10106000002001400100000F80B500AF174B184A67
:101070001A60164B4FF482725A60144B00229A6029
:10108000124B0022DA60114B00221A610F4B002232
:101090005A610E4B4FF400729A610C4B1822DA61C0
:1010A0000A4B00221A62094B00225A62074B0022A7
:1010B0009A62064B0A22DA62044803F0CEF903462C
:1010C000002B01D000F0D0FB00BF80BDE005002068
:1010D0000030014080B500AF184B194A1A60174B19
:1010E0004FF482725A60154B4FF400429A60134BD2
:1010F0000022DA60114B00221A61104B00225A6163
:101100000E4B4FF400729A610C4B0022DA610B4BCC
:1011100000221A62094B00225A62084B00229A628E
:10112000064B0A22DA62054803F097F90346002BC2
:1011300001D000F099FB00BF80BD00BF3806002041
:101140000038004080B586B000AF07F108030022E8
:101150001A605A609A60DA603B4600221A605A6050
:101160001E4B1F4A1A601D4B31225A601B4B002236
:101170009A601A4B4FF6FE72DA60184B00221A6121
:10118000164B00225A61154B00229A61134803F056
:101190000DFF0346002B01D000F066FB4FF4805397
:1011A000BB6007F1080319460C4804F075FC0346C0
:1011B000002B01D000F058FB00233B6000237B6034
:1011C0003B461946054805F067F80346002B01D059
:1011D00000F04AFB00BF1837BD4680BD90060020D6
:1011E0000000014080B58CB000AF07F10C03242251
:1011F0000021184609F01BFD3B1D00221A605A60B1
:10120000214B4FF080421A601F4B00225A601E4B48
:1012100000229A601C4B4FF0FF32DA601A4B00221A
:101220001A61194B80229A610123FB6000233B6104
:1012300001237B610023BB610023FB6100233B6230
:1012400001237B620023BB620023FB6207F10C03D6
:1012500019460D4804F022F90346002B01D000F096
:1012600003FB00237B600023BB603B1D194606483F
:1012700005F012F80346002B01D000F0F5FA00BF8C
:101280003037BD4680BD00BFD806002080B58EB087
:1012900000AF07F1280300221A605A609A60DA60F2
:1012A00007F1200300221A605A603B1D00221A60D9
:1012B0005A609A60DA601A615A619A613D4B3E4AFF
:1012C0001A603C4B00225A603A4B00229A60394B1C
:1012D00040F6FF72DA60374B00221A61354B00226C
:1012E0009A61344803F062FE0346002B01D000F0FF
:1012F000BBFA4FF48053BB6207F1280319462D480F
:1013000004F0CAFB0346002B01D000F0ADFA2948D7
:1013100003F0A3FF0346002B01D000F0A5FA002341
:101320003B6200237B6207F120031946214804F049
:10133000B3FF0346002B01D000F096FA60237B60D8
:101340000023BB600023FB6000237B613B1D002268
:101350001946184804F0DEFA0346002B01D000F0CD
:1013600083FA3B1D04221946124804F0D3FA0346BF
:10137000002B01D000F078FA3B1D082219460D48D9
:1013800004F0C8FA0346002B01D000F06DFA3B1DB3
:101390000C221946074804F0BDFA0346002B01D081
:1013A00000F062FA034800F0F3FC00BF3837BD4696
:1013B00080BD00BF200700200008004080B58CB031
:1013C00000AF07F10C0324220021184609F02FFC7E
:1013D0003B1D00221A605A60204B214A1A601F4BA5
:1013E00000225A601D4B00229A601C4B4FF0FF32C6
:1013F000DA601A4B00221A61184B80229A6102238C
:10140000FB6000233B6101237B610023BB61002360
:10141000FB6100233B6201237B620023BB6200234C
:10142000FB6207F10C0319460C4804F037F8034639
:10143000002B01D000F018FA00237B600023BB6072
:101440003B1D1946054804F027FF0346002B01D039
:1014500000F00AFA00BF3037BD4680BD68070020A3
:10146000000C004080B582B000AF3B4600221A60FD
:101470005A60154B154A1A60134B00225A60124BE2
:1014800000229A60104B4FF6FF72DA600E4B00227A
:101490009A610D4803F08AFD0346002B01D000F04D
:1014A000E3F900233B6000237B603B461946064876
:1014B00004F0F2FE0346002B01D000F0D5F900BF86
:1014C0000837BD4680BD00BFB007002000100040B7
:1014D00080B58CB000AF07F1200300221A605A607B
:1014E0009A60DA603B1D00221A605A609A60DA60E6
:1014F0001A615A619A61254B254A1A60234B3122A1
:101500005A60224B00229A60204B4FF47A72DA60C4
:101510001E4B00221A611D4B00229A611B4803F0EA
:1015200045FD0346002B01D000F09EF94FF4805397
:101530003B6207F120031946144804F0ADFA034654
:10154000002B01D000F090F9104803F086FE03460E
:10155000002B01D000F088F960237B600023BB6082
:101560000023FB6000237B613B1D002219460748D6
:1015700004F0D0F90346002B01D000F075F90348C0
:1015800000F006FC00BF3037BD4680BDF8070020E4
:101590000040014080B500AF0E4B0F4A1A600D4B62
:1015A00000225A600B4B00229A600A4B4CF25032D8
:1015B000DA60084B00221A61064B00229A61054846
:1015C00003F0F4FC0346002B01D000F04DF900BFFE
:1015D00080BD00BF40080020001C004080B500AF67
:1015E0000E4B0F4A1A600D4B01225A600B4B002222
:1015F0009A600A4B4CF25032DA60084B00221A61B2
:10160000064B00229A61054803F0D0FC0346002BEC
:1016100001D000F029F900BF80BD00BF880800207C
:101620000020004080B500AF114B124A1A60104BE9
:101630004FF4E1325A600E4B00229A600C4B0022AC
:10164000DA600B4B00221A61094B0C225A61084BDD
:1016500000229A61064B0022DA61054804F0ACFED4
:101660000346002B01D000F0FFF800BF80BD00BF93
:10167000D00800200010014080B582B000AF0023E8
:101680007B600C4B1B6B0B4A43F480031363094BC9
:101690001B6B03F480037B607B68002200213820F1
:1016A00001F02DFD382001F046FD00BF0837BD4692
:1016B00080BD00BF0038024080B58AB000AF07F19E
:1016C000140300221A605A609A60DA601A610023DB
:1016D0003B61604B1B6B5F4A43F0040313635D4B3C
:1016E0001B6B03F004033B613B690023FB60594B18
:1016F0001B6B584A43F080031363564B1B6B03F07C
:101700008003FB60FB680023BB60524B1B6B514A9C
:1017100043F0010313634F4B1B6B03F00103BB60EA
:10172000BB6800237B604B4B1B6B4A4A43F00203B0
:101730001363484B1B6B03F002037B607B68002341
:101740003B60444B1B6B434A43F008031363414B1C
:101750001B6B03F008033B603B68002241F6E75136
:101760003D4802F089F9002241F610013B4802F0A1
:1017700083F900224FF4C851394802F07DF9002264
:101780000421384802F078F94FF400537B610023BC
:10179000BB610023FB6107F1140319462E4801F0D9
:1017A000CFFF41F6E7537B610123BB610023FB615F
:1017B00000233B6207F114031946274801F0C0FFDC
:1017C00008237B610023BB610023FB6107F1140345
:1017D0001946234801F0B4FF44F224437B610023FF
:1017E000BB610023FB6107F1140319461B4801F09C
:1017F000A7FF41F610037B610123BB610023FB615E
:1018000000233B6207F114031946144801F098FFC6
:101810004FF4C8537B610123BB610023FB610023AC
:101820003B6207F1140319460D4801F089FF0423B8
:101830007B610123BB610023FB6100233B6207F155
:1018400014031946074801F07BFF00BF2837BD4647
:1018500080BD00BF00380240000802400004024082
:1018600000000240000C024080B400AF72B600BF1E
:10187000FEE7000080B483B000AF00237B60104B14
:101880005B6C0F4A43F4804353640D4B5B6C03F471
:1018900080437B607B6800233B60094B1B6C084ADC
:1018A00043F080531364064B1B6C03F080533B6082
:1018B0003B6800BF0C37BD465DF8047B704700BF36
:1018C0000038024080B58CB000AF786007F11C038F
:1018D00000221A605A609A60DA601A617B681B689D
:1018E000494A934240F08B800023BB61474B5B6CBD
:1018F000464A43F480735364444B5B6C03F4807337
:10190000BB61BB6900237B61404B1B6B3F4A43F0CB
:10191000040313633D4B1B6B03F004037B617B6982
:1019200000233B61394B1B6B384A43F001031363BF
:10193000364B1B6B03F001033B613B690023FB60EB
:10194000324B1B6B314A43F0020313632F4B1B6B6B
:1019500003F00203FB60FB681823FB6103233B6277
:1019600000237B6207F11C031946294801F0E8FEB9
:101970001023FB6103233B6200237B6207F11C03FE
:101980001946244801F0DCFE0323FB6103233B627C
:1019900000237B6207F11C0319461F4801F0D0FEAB
:1019A0001E4B1F4A1A601D4B00225A601B4B00221F
:1019B0009A601A4B0022DA60184B4FF480621A6169
:1019C000164B4FF400625A61144B4FF400529A6167
:1019D000124B0022DA61114B00221A620F4B0022D7
:1019E0005A620E4801F0C2FB0346002B01D0FFF7FC
:1019F0003BFF7B68094A9A63084A7B68936300BF90
:101A00003037BD4680BD00BF002001400038024095
:101A1000000802400000024000040240800500204F
:101A20001064024080B58CB000AF786007F11C03F1
:101A300000221A605A609A60DA601A617B681B683B
:101A4000324A93422CD10023BB61314B5B6C304A4C
:101A500043F4805353642E4B5B6C03F48053BB619F
:101A6000BB6900237B612A4B1B6B294A43F00103AE
:101A70001363274B1B6B03F001037B617B69E0233E
:101A8000FB6102233B6200237B620323BB620523CD
:101A9000FB6207F11C0319461E4801F051FE31E0BC
:101AA0007B681B681C4A93422CD100233B61184B76
:101AB0001B6C174A43F480431364154B1B6C03F4EF
:101AC00080433B613B690023FB60114B1B6B104A59
:101AD00043F0020313630E4B1B6B03F00203FB6026
:101AE000FB684FF42043FB6102233B6200237B62CF
:101AF0000323BB620523FB6207F11C031946074859
:101B000001F01EFE00BF3037BD4680BD00300140F1
:101B1000003802400000024000380040000402404B
:101B200080B588B000AF78607B681B68444A9342F8
:101B30000ED10023FB61434B5B6C424A43F001032F
:101B40005364404B5B6C03F00103FB61FB6972E083
:101B50007B681B683C4A93420ED10023BB61394B22
:101B60001B6C384A43F004031364364B1B6C03F0C0
:101B70000403BB61BB695EE07B681B68334A934228
:101B80000ED100237B612F4B1B6C2E4A43F01003B8
:101B900013642C4B1B6C03F010037B617B694AE0E0
:101BA0007B681B682A4A93420ED100233B61254B78
:101BB0005B6C244A43F480335364224B5B6C03F424
:101BC00080333B613B6936E07B681B68214A934266
:101BD00016D10023FB601B4B1B6C1A4A43F0800399
:101BE0001364184B1B6C03F08003FB60FB6800223E
:101BF00000212C2001F083FA2C2001F09CFA1AE03D
:101C00007B681B68144A934215D10023BB600D4BBF
:101C10001B6C0C4A43F4807313640A4B1B6C03F473
:101C20008073BB60BB68002200212D2001F067FAA1
:101C30002D2001F080FA00BF2037BD4680BD00BFD7
:101C40000000014000380240000800400010004041
:101C500000400140001C00400020004080B58CB0D6
:101C600000AF786007F11C0300221A605A609A6086
:101C7000DA601A617B681B68B3F1804F4BD1002397
:101C8000BB613F4B1B6C3E4A43F0010313643C4B6A
:101C90001B6C03F00103BB61BB6900237B61384B04
:101CA0001B6B374A43F001031363354B1B6B03F087
:101CB00001037B617B6900233B61314B1B6B304A25
:101CC00043F0020313632E4B1B6B03F002033B61D3
:101CD0003B694FF40043FB6102233B6200237B62BC
:101CE0000023BB620123FB6207F11C031946254850
:101CF00001F026FD0823FB6102233B6200237B6287
:101D00000023BB620123FB6207F11C0319461E4836
:101D100001F016FD30E07B681B681C4A93422BD112
:101D20000023FB60164B1B6C154A43F00803136439
:101D3000134B1B6C03F00803FB60FB680023BB60C4
:101D40000F4B1B6B0E4A43F0010313630C4B1B6BD1
:101D500003F00103BB60BB680323FB6102233B620A
:101D600000237B620023BB620223FB6207F11C039A
:101D70001946044801F0E4FC00BF3037BD4680BD81
:101D8000003802400000024000040240000C004005
:101D900080B58AB000AF786007F1140300221A60A2
:101DA0005A609A60DA601A617B681B68244A934221
:101DB0001FD100233B61234B1B6B224A43F00203DC
:101DC0001363204B1B6B03F002033B613B694FF431
:101DD00070737B610223BB610023FB6100233B62C4
:101DE00002237B6207F114031946174801F0A8FC8F
:101DF00022E07B681B68154A93421DD10023FB60DB
:101E0000104B1B6B0F4A43F0010313630D4B1B6B0D
:101E100003F00103FB60FB6804237B610223BB61C9
:101E20000023FB6100233B6203237B6207F1140361
:101E30001946074801F084FC00BF2837BD4680BD25
:101E40000008004000380240000402400040014009
:101E50000000024080B58AB000AF786007F114033B
:101E600000221A605A609A60DA601A617B681B6807
:101E7000194A93422CD100233B61184B5B6C174AE3
:101E800043F010035364154B5B6C03F010033B618C
:101E90003B690023FB60114B1B6B104A43F00103AD
:101EA00013630E4B1B6B03F00103FB60FB684FF4E5
:101EB000C0637B610223BB610023FB6103233B62A0
:101EC00007237B6207F114031946054801F038FC2B
:101ED00000BF2837BD4680BD0010014000380240D9
:101EE0000000024080B500AF02F09CFAFEE780B42B
:101EF00000AFFEE780B400AFFEE780B400AFFEE7BE
:101F000080B400AFFEE780B400AF00BFBD465DF80F
:101F1000047B704780B400AF00BFBD465DF8047B12
:101F2000704780B400AF00BFBD465DF8047B7047CA
:101F300080B500AF00F0C4FB00BF80BD80B500AF2E
:101F4000024803F0DFFB00BF80BD00BF4008002057
:101F500080B500AF024803F0D5FB00BF80BD00BFD5
:101F60008808002080B500AF024801F0ADF900BF3D
:101F700080BD00BF8005002080B400AF012318465B
:101F8000BD465DF8047B704780B582B000AF7860D5
:101F9000396008F0F3FE034616221A604FF0FF3353
:101FA00018460837BD4680BD80B582B000AF786066
:101FB0004FF0FF317868FFF7E7FFFEE780B586B0A6
:101FC00000AFF860B9607A6000237B610AE0AFF38C
:101FD00000800146BB685A1CBA60CAB21A707B699D
:101FE00001337B617A697B689A42F0DB7B68184633
:101FF0001837BD4680BD80B586B000AFF860B960C7
:102000007A6000237B6109E0BB685A1CBA601B78C8
:102010001846AFF300807B6901337B617A697B6886
:102020009A42F1DB7B6818461837BD4680BD80B404
:1020300083B000AF78604FF0FF3318460C37BD46D1
:102040005DF8047B704780B483B000AF786039607E
:102050003B684FF400525A60002318460C37BD46C7
:102060005DF8047B704780B483B000AF78600123D3
:1020700018460C37BD465DF8047B704780B485B0C8
:1020800000AFF860B9607A60002318461437BD4687
:102090005DF8047B7047000080B586B000AF7860C3
:1020A000144A154BD31A7B617B693B61134B1B6848
:1020B000002B02D1114B124A1A60104B1A687B6830
:1020C00013443A699A4207D208F058FE03460C229C
:1020D0001A604FF0FF3309E0084B1B68FB60074BA9
:1020E0001A687B681344054A1360FB681846183762
:1020F000BD4680BD0000022000040000140900203D
:10210000A81C002080B400AF064BD3F88830054AE5
:1021100043F47003C2F8883000BFBD465DF8047B0D
:10212000704700BF00ED00E0DFF834D00D480E49E5
:102130000E4A002302E0D458C4500433C4188C4221
:10214000F9D30B4A0B4C002301E013600432A24286
:10215000FBD3FFF7D7FF08F017FEFEF7A3FE70478B
:1021600000000220000000201C050020ACD6000862
:102170001C050020A81C0020FEE780B500AF0A2047
:1021800000F0BEFA00BF80BD80B582B000AF03464C
:10219000FB71002240210C4801F06EFC002204215A
:1021A000094801F069FCF91D4FF0FF33012207488F
:1021B00002F0DCF901224021034801F05DFC00BF80
:1021C0000837BD4680BD00BF000802403806002029
:1021D00080B582B000AF78603960002240210C48A1
:1021E00001F04AFC01220421094801F045FC3B684A
:1021F0009AB24FF0FF337968064802F0B7F901222E
:102200004021034801F038FC00BF0837BD4680BDBF
:10221000000802403806002080B500AFFFF7ADFF90
:10222000642000F06DFA002000F0DAF92020FFF7BA
:10223000ABFF0020FFF7A8FFB020FFF7A5FFC820E5
:10224000FFF7A2FF0020FFF79FFF1020FFF79CFF82
:102250004020FFF799FFFF2000F0AEF9A120FFF723
:1022600093FFA620FFF790FFA820FFF78DFF1F2008
:10227000FFF78AFFA420FFF787FFD320FFF784FF33
:102280000020FFF781FFD520FFF77EFFF020FFF74A
:102290007BFFD920FFF778FF2220FFF775FFDA20B8
:1022A000FFF772FF0220FFF76FFFDB20FFF76CFFE5
:1022B0002020FFF769FF8D20FFF766FF1420FFF74E
:1022C00063FF012000F08CF9002000F00FF800F00F
:1022D00031F8054B00221A80034B00225A80024B32
:1022E00001221A7100BF80BD180B002080B485B098
:1022F00000AF0346FB710023FB600DE0FB79002B70
:1023000001D1002100E0FF21094AFB6813440A467D
:102310001A70FB680133FB60FB68B3F5007FEDD3F7
:1023200000BF00BF1437BD465DF8047B704700BF97
:102330001809002080B582B000AF0023FB7116E0C1
:10234000FB79503BDBB21846FFF71EFF0020FFF77A
:102350001BFF1020FFF718FFFB79DB01084A13442D
:1023600080211846FFF734FFFB790133FB71FB79BD
:10237000032BE5D900BF00BF0837BD4680BD00BFB5
:102380001809002080B483B000AF0346FB710B46F0
:10239000BB7113467B7197F90730002B3DDBBB798E
:1023A0001F2B3AD87B79012B1AD1FA79BB79DB083C
:1023B000D8B20346DB0113441B4AD35C5AB2BB7943
:1023C00003F00703012101FA03F35BB2134359B28F
:1023D000FA790346DB011344C9B2134AD1541DE014
:1023E000FA79BB79DB08D8B20346DB0113440E4A05
:1023F000D35C5AB2BB7903F00703012101FA03F35E
:102400005BB2DB435BB2134059B2FA790346DB019E
:102410001344C9B2044AD15400E000BF0C37BD4692
:102420005DF8047B704700BF1809002090B589B0A3
:1024300000AF0446381D80E806001A462346FB73A9
:102440001346BB73FB7B1F2B02D9FB7B7E2B01D971
:1024500000236DE0384B1B881A463B791344802BD0
:1024600006DC354B5B881A467B791344202B01DD53
:1024700000235DE00023FB614CE0BA68FB7B203B5E
:10248000797901FB03F31946FB690B445B001344A4
:102490001B887B610023BB6134E07A69BB6902FA67
:1024A00003F303F40043002B12D0234B1B88DAB252
:1024B000BB69DBB21344D8B21F4B5B88DAB2FB694D
:1024C000DBB21344DBB2BA7B1946FFF75BFF16E0C1
:1024D000194B1B88DAB2BB69DBB21344D8B2164B76
:1024E0005B88DAB2FB69DBB21344D9B2BB7B002B49
:1024F0000CBF01230023DBB21A46FFF743FFBB6981
:102500000133BB613B791A46BB699342C5D3FB6972
:102510000133FB617B791A46FB699342ADD3064BCD
:102520001A883B799BB213449AB2034B1A80FB7B07
:1025300018462437BD4690BD180B002080B584B0E6
:1025400000AFF860381D80E80600FB7012E0FB6801
:102550001878FB783A1D06CAFFF768FF03461A464B
:10256000FB681B789A4202D0FB681B7808E0FB6886
:102570000133FB60FB681B78002BE8D1FB681B78FC
:1025800018461037BD4680BD80B483B000AF034607
:102590000A46FB711346BB71FB799AB2054B1A8050
:1025A000BB799AB2034B5A8000BF0C37BD465DF829
:1025B000047B7047180B002080B584B000AF034641
:1025C000FB718123FB73FB7B1846FFF7DDFDFB7975
:1025D0001846FFF7D9FD00BF1037BD4680BD00008B
:1025E00080B584B000AF0346FB71FB79002B05D0AA
:1025F000AF23FB73084B01225A7104E0AE23FB7337
:10260000054B00225A71FB7B1846FFF7BDFD00BF4A
:102610001037BD4680BD00BF180B002080B500AF4D
:102620000E4B1B680D4A43F4007313600B4B1B6881
:102630000A4A43F480631360084B1B68074A43F45B
:1026400080731360032000F04FFD0F2000F008F8A6
:10265000FFF710F90023184680BD00BF003C024080
:1026600080B582B000AF7860124B1A68124B1B78AD
:1026700019464FF47A73B3FBF1F3B2FBF3F3184648
:1026800000F067FD0346002B01D001230EE07B68BC
:102690000F2B0AD8002279684FF0FF3000F02FFD91
:1026A000064A7B681360002300E0012318460837C0
:1026B000BD4680BD00000020100000200C0000205E
:1026C00080B400AF064B1B781A46064B1B681344B8
:1026D000044A136000BFBD465DF8047B704700BF2D
:1026E00010000020200B002080B400AF034B1B68BB
:1026F0001846BD465DF8047B704700BF200B0020E4
:1027000080B584B000AF7860FFF7EEFFB8607B68FB
:10271000FB60FB68B3F1FF3F05D00A4B1B781A46FC
:10272000FB681344FB6000BFFFF7DEFF0246BB6897
:10273000D31AFA689A42F7D800BF00BF1037BD46D7
:1027400080BD00BF1000002080B584B000AF78606D
:102750000023FB737B68002B01D1012333E07B68EE
:102760001B6C002B09D17868FFF7ACF87B6800225E
:102770005A647B68002283F83C207B681B6C03F062
:102780001003002B18D17B681B6C23F4885323F0B3
:10279000020343F002027B681A64786800F0D8FAFA
:1027A0007B6800225A647B681B6C23F0030343F0B0
:1027B00001027B681A6401E00123FB737B6800223D
:1027C00083F83C20FB7B18461037BD4680BD0000D7
:1027D00080B485B000AF78600023BB607B6893F85D
:1027E0003C30012B01D10223B2E07B68012283F847
:1027F0003C207B681B689B6803F00103012B18D009
:102800007B681B689A687B681B6842F001029A60CB
:10281000524B1B68524AA2FB03239A0C13465B00DF
:102820001344BB6002E0BB68013BBB60BB68002B8C
:10283000F9D17B681B689B6803F00103012B7AD1F7
:102840007B681B6C23F4E06323F0010343F4807284
:102850007B681A647B681B685B6803F48063002BE9
:1028600007D07B681B6C23F4405343F480527B6891
:102870001A647B681B6C03F48053B3F5805F06D148
:102880007B685B6C23F006027B685A6402E07B681D
:1028900000225A647B68002283F83C20314BFB60A5
:1028A0007B681B686FF022021A60FB685B6803F0AC
:1028B0001F03002B2AD17B681B682B4A934215D03B
:1028C0007B681B68294A934205D1264B5B6803F05D
:1028D0001F03002B0AD07B681B68254A934236D120
:1028E000204B5B6803F01003002B30D17B681B6822
:1028F0009B6803F04053002B29D17B681B689A68C2
:102900007B681B6842F080429A6020E07B681B680D
:10291000154A93421BD17B681B689B6803F04053A8
:10292000002B14D17B681B689A687B681B6842F097
:1029300080429A600BE07B681B6C43F010027B685E
:102940001A647B685B6C43F001027B685A64002365
:1029500018461437BD465DF8047B70470000002020
:1029600083DE1B4300230140002001400021014081
:102970000022014080B483B000AF78607B6893F898
:102980003C30012B01D1022321E07B68012283F836
:102990003C207B681B689A687B681B6822F00102F8
:1029A0009A607B681B689B6803F00103002B09D1C8
:1029B0007B681B6C23F4885323F0010343F001026E
:1029C0007B681A647B68002283F83C200023184649
:1029D0000C37BD465DF8047B704780B584B000AF0E
:1029E000786039600023FB607B681B689B6803F498
:1029F0008063B3F5806F13D17B681B689B6803F419
:102A00008073B3F5807F0BD17B681B6C43F0200291
:102A10007B681A647B68002283F83C20012363E012
:102A2000FFF762FEF86021E03B68B3F1FF3F1DD085
:102A30003B68002B07D0FFF757FE0246FB68D31A0E
:102A40003A689A4212D27B681B681B6803F0020343
:102A5000022B0BD07B681B6C43F004027B681A646A
:102A60007B68002283F83C2003233DE07B681B68E1
:102A70001B6803F00203022BD6D17B681B686FF042
:102A800012021A607B681B6C43F400727B681A6444
:102A90007B681B689B6803F04053002B23D17B6845
:102AA0001B7E002B1FD17B681B68DB6A03F470035D
:102AB000002B06D07B681B689B6803F48063002BA7
:102AC00011D17B681B6C23F480727B681A647B686D
:102AD0001B6C03F48053002B05D17B681B6C43F007
:102AE00001027B681A64002318461037BD4680BD7A
:102AF00080B483B000AF78607B681B68DB6C1846DD
:102B00000C37BD465DF8047B7047000080B485B08B
:102B100000AF786039600023BB607B6893F83C307D
:102B2000012B01D1022305E17B68012283F83C20BF
:102B30003B681B68092B25D97B681B68D9683B68F3
:102B40001B689BB21A4613465B0013441E3B0722C8
:102B500002FA03F3DA437B681B680A40DA607B6899
:102B60001B68D9683B689A683B681B689BB218462B
:102B700003465B0003441E3B9A407B681B680A4384
:102B8000DA6022E07B681B6819693B681B689BB2AE
:102B90001A4613465B001344072202FA03F3DA4392
:102BA0007B681B680A401A617B681B6819693B686F
:102BB0009A683B681B689BB2184603465B00034457
:102BC0009A407B681B680A431A613B685B68062B66
:102BD00024D87B681B68596B3B685A6813469B0076
:102BE0001344053B1F2202FA03F3DA437B681B6898
:102BF0000A405A637B681B68596B3B681B689BB231
:102C000018463B685A6813469B001344053B00FA7C
:102C100003F27B681B680A435A634CE03B685B68BD
:102C20000C2B24D87B681B68196B3B685A681346C9
:102C30009B001344233B1F2202FA03F3DA437B6811
:102C40001B680A401A637B681B68196B3B681B682A
:102C50009BB218463B685A6813469B001344233BBB
:102C600000FA03F27B681B680A431A6323E07B685F
:102C70001B68D96A3B685A6813469B001344413B62
:102C80001F2202FA03F3DA437B681B680A40DA6208
:102C90007B681B68D96A3B681B689BB218463B6817
:102CA0005A6813469B001344413B00FA03F27B68C9
:102CB0001B680A43DA62224BFB607B681B68214A6F
:102CC000934209D13B681B68122B05D1FB685B68F6
:102CD00043F48002FB685A607B681B68194A934280
:102CE00023D13B681B68102B03D03B681B68112B5A
:102CF0001BD1FB685B6843F40002FB685A603B68C9
:102D00001B68102B11D1104B1B68104AA2FB032328
:102D10009A0C13469B0013445B00BB6002E0BB6847
:102D2000013BBB60BB68002BF9D17B68002283F8B4
:102D30003C20002318461437BD465DF8047B7047DD
:102D400000230140002001400000002083DE1B43DF
:102D500080B485B000AF7860794BFB60FB685B683E
:102D600023F44032FB685A60FB685A687B685B68F2
:102D70001A43FB685A607B681B685A687B681B684B
:102D800022F480725A607B681B6859687B681B69F3
:102D90001A027B681B680A435A607B681B685A6882
:102DA0007B681B6822F040725A607B681B68596818
:102DB0007B689A687B681B680A435A607B681B685B
:102DC0009A687B681B6822F400629A607B681B68C3
:102DD00099687B68DA687B681B680A439A607B683D
:102DE0009B6A584A934222D07B681B689A687B682A
:102DF0001B6822F070629A607B681B6899687B6828
:102E00009A6A7B681B680A439A607B681B689A68A9
:102E10007B681B6822F040529A607B681B68996847
:102E20007B68DA6A7B681B680A439A600FE07B68FC
:102E30001B689A687B681B6822F070629A607B68E6
:102E40001B689A687B681B6822F040529A607B6816
:102E50001B689A687B681B6822F002029A607B6894
:102E60001B6899687B681B7E5A007B681B680A4355
:102E70009A607B6893F82030002B1BD07B681B681E
:102E80005A687B681B6842F400625A607B681B6862
:102E90005A687B681B6822F460425A607B681B6832
:102EA00059687B685B6A013B5A037B681B680A436D
:102EB0005A6007E07B681B685A687B681B6822F4CD
:102EC00000625A607B681B68DA6A7B681B6822F4C0
:102ED0007002DA627B681B68D96A7B68DB69013B38
:102EE0001A057B681B680A43DA627B681B689A686C
:102EF0007B681B6822F400729A607B681B68996883
:102F00007B6893F830305A027B681B680A439A60EA
:102F10007B681B689A687B681B6822F480629A60F1
:102F20007B681B6899687B685B699A027B681B6891
:102F30000A439A6000BF1437BD465DF8047B7047B2
:102F4000002301400100000F80B485B000AF78601D
:102F50007B6803F00703FB600C4BDB68BB60BA685F
:102F60004FF6FF031340BB60FB681A02BB681343B4
:102F700043F0BF6343F40033BB60044ABB68D360D3
:102F800000BF1437BD465DF8047B704700ED00E0DC
:102F900080B400AF044BDB681B0A03F0070318463C
:102FA000BD465DF8047B704700ED00E080B483B05F
:102FB00000AF0346FB7197F90730002B0BDBFB7961
:102FC00003F01F02074997F907305B09012000FA57
:102FD00002F241F8232000BF0C37BD465DF8047BA8
:102FE000704700BF00E100E080B483B000AF03464B
:102FF0003960FB7197F90730002B0ADB3B68DAB2C6
:103000000C4997F907301201D2B20B4483F8002320
:103010000AE03B68DAB20849FB7903F00F03043B8E
:103020001201D2B20B441A7600BF0C37BD465DF8D0
:10303000047B704700E100E000ED00E080B489B05F
:1030400000AFF860B9607A60FB6803F00703FB61CA
:10305000FB69C3F10703042B28BF0423BB61FB6991
:103060000433062B02D9FB69033B00E000237B619C
:103070004FF0FF32BB6902FA03F3DA43BB681A4030
:103080007B699A404FF0FF317B6901FA03F3D94322
:103090007B680B40134318462437BD465DF8047B1C
:1030A0007047000080B582B000AF78607B68013B5C
:1030B000B3F1807F01D301230FE00A4A7B68013B13
:1030C00053600F214FF0FF30FFF78EFF054B0022BA
:1030D0009A60044B07221A60002318460837BD4641
:1030E00080BD00BF10E000E080B582B000AF786026
:1030F0007868FFF729FF00BF0837BD4680BD80B55F
:1031000086B000AF0346B9607A60FB7300237B6131
:10311000FFF73EFF78617A68B9687869FFF78EFF3C
:10312000024697F90F3011461846FFF75DFF00BFC2
:103130001837BD4680BD80B582B000AF0346FB7135
:1031400097F907301846FFF731FF00BF0837BD4633
:1031500080BD80B582B000AF78607868FFF7A2FFCD
:10316000034618460837BD4680BD000080B586B0CE
:1031700000AF786000237B61FFF7B6FA38617B68A7
:10318000002B01D1012399E07B68022283F83520CE
:103190007B68002283F834207B681B681A687B6890
:1031A0001B6822F001021A600FE0FFF79DFA024649
:1031B0003B69D31A052B08D97B6820225A657B68A6
:1031C000032283F83520032378E07B681B681B68A3
:1031D00003F00103002BE8D17B681B681B687B614F
:1031E0007A69384B13407B617B685A687B689B68BF
:1031F0001A437B68DB681A437B681B691A437B6848
:103200005B691A437B689B691A437B68DB691A43D5
:103210007B681B6A13437A6913437B617B685B6A33
:10322000042B07D17B68DA6A7B681B6B13437A69CE
:1032300013437B617B681B687A691A607B681B6833
:103240005B697B617B6923F007037B617B685B6A59
:103250007A6913437B617B685B6A042B17D17B68B7
:103260009B6A7A6913437B617B68DB6A002B0ED013
:10327000786800F0E9F90346002B08D07B6840220B
:103280005A657B68012283F83520012316E07B68AC
:103290001B687A695A61786800F0A0F90346FB6000
:1032A0007B68DB6D3F229A40FB689A607B68002256
:1032B0005A657B68012283F83520002318461837A9
:1032C000BD4680BD3F8010F080B586B000AF78600D
:1032D0000023BB608E4B1B688E4AA2FB03239B0A14
:1032E0007B617B689B6D3B613B691B68FB607B6816
:1032F000DB6D08229A40FB681340002B1AD07B68D4
:103300001B681B6803F00403002B13D07B681B6849
:103310001A687B681B6822F004021A607B68DB6D08
:1033200008229A403B699A607B685B6D43F001021A
:103330007B685A657B68DB6D01229A40FB6813400D
:10334000002B12D07B681B685B6903F08003002BA5
:103350000BD07B68DB6D01229A403B699A607B68E9
:103360005B6D43F002027B685A657B68DB6D04226B
:103370009A40FB681340002B12D07B681B681B68C7
:1033800003F00203002B0BD07B68DB6D04229A4014
:103390003B699A607B685B6D43F004027B685A6509
:1033A0007B68DB6D10229A40FB681340002B43D0F2
:1033B0007B681B681B6803F00803002B3CD07B680C
:1033C000DB6D10229A403B699A607B681B681B6822
:1033D00003F48023002B18D07B681B681B6803F460
:1033E0000023002B08D17B681B6C002B24D07B684A
:1033F0001B6C786898471FE07B689B6C002B1BD088
:103400007B689B6C7868984716E07B681B681B6834
:1034100003F48073002B07D17B681B681A687B68F4
:103420001B6822F008021A607B681B6C002B03D01B
:103430007B681B6C786898477B68DB6D20229A401C
:10344000FB681340002B00F08F807B681B681B68B3
:1034500003F01003002B00F087807B68DB6D2022D7
:103460009A403B699A607B6893F83530DBB2052B54
:1034700036D17B681B681A687B681B6822F01602CD
:103480001A607B681B685A697B681B6822F080029F
:103490005A617B681B6C002B03D17B689B6C002BF3
:1034A00007D07B681B681A687B681B6822F00802DB
:1034B0001A607B68DB6D3F229A403B699A607B68AB
:1034C000012283F835207B68002283F834207B6852
:1034D0001B6D002B7ED07B681B6D7868984779E068
:1034E0007B681B681B6803F48023002B1DD07B685E
:1034F0001B681B6803F40023002B0DD17B685B6CF9
:10350000002B31D07B685B6C786898472CE000BF5B
:1035100000000020B5814E1B7B68DB6B002B23D0A5
:103520007B68DB6B786898471EE07B681B681B68CC
:1035300003F48073002B0FD17B681B681A687B68CB
:103540001B6822F010021A607B68012283F8352084
:103550007B68002283F834207B68DB6B002B03D070
:103560007B68DB6B786898477B685B6D002B32D09B
:103570007B685B6D03F00103002B22D07B68052282
:1035800083F835207B681B681A687B681B6822F00B
:1035900001021A60BB680133BB607A699A4207D3A3
:1035A0007B681B681B6803F00103002BF2D100E06D
:1035B00000BF7B68012283F835207B68002283F8F6
:1035C00034207B68DB6C002B05D07B68DB6C786873
:1035D000984700E000BF1837BD4680BD80B485B075
:1035E00000AF78607B681B68DBB2103B144AA2FB1B
:1035F00003231B09FB60134AFB6813441B781A461C
:103600007B68DA65FB68032B09D97B681B6823F4A8
:103610007F7323F003031A1D7B689A6507E07B68BC
:103620001B6823F47F7323F003037A6893657B6838
:103630009B6D18461437BD465DF8047B704700BF8C
:10364000ABAAAAAA24D3000880B485B000AF7860E2
:103650000023FB737B689B6ABB607B689B69002BC4
:103660001FD1BB68032B56D801A252F823F000BF2C
:1036700081360008933600088136000817370008A5
:103680007B68DB6A03F08073002B46D00123FB7359
:1036900043E07B68DB6AB3F1C07F40D10123FB7359
:1036A0003DE07B689B69B3F5005F21D1BB68032BCC
:1036B00037D801A252F823F0C9360008CF360008E7
:1036C000C9360008E13600080123FB7330E07B684F
:1036D000DB6A03F08073002B25D00123FB7322E00B
:1036E0007B68DB6AB3F1C07F1FD10123FB731CE051
:1036F000BB68022B03D9BB68032B03D018E001235E
:10370000FB7315E07B68DB6A03F08073002B0ED03F
:103710000123FB730BE000BF0AE000BF08E000BF1D
:1037200006E000BF04E000BF02E000BF00E000BF11
:10373000FB7B18461437BD465DF8047B704700BF1D
:1037400080B489B000AF7860396000237B610023CA
:103750003B610023BB610023FB616BE10122FB693C
:1037600002FA03F37B613B681B687A6913403B6193
:103770003A697B699A4240F05A813B685B6803F082
:103780000303012B05D03B685B6803F00303022BA6
:1037900030D17B689B68BB61FB695B00032202FA46
:1037A00003F3DB43BA691340BB613B68DA68FB692A
:1037B0005B0002FA03F3BA691343BB617B68BA6921
:1037C0009A607B685B68BB610122FB6902FA03F3C4
:1037D000DB43BA691340BB613B685B681B0903F0BC
:1037E0000102FB6902FA03F3BA691343BB617B6808
:1037F000BA695A603B685B6803F00303032B17D078
:103800007B68DB68BB61FB695B00032202FA03F3A0
:10381000DB43BA691340BB613B689A68FB695B0094
:1038200002FA03F3BA691343BB617B68BA69DA60D1
:103830003B685B6803F00303022B23D1FB69DA08C2
:103840007B68083253F82230BB61FB6903F0070341
:103850009B000F2202FA03F3DB43BA691340BB61FA
:103860003B681A69FB6903F007039B0002FA03F344
:10387000BA691343BB61FB69DA087B680832B9692E
:1038800043F822107B681B68BB61FB695B00032265
:1038900002FA03F3DB43BA691340BB613B685B6820
:1038A00003F00302FB695B0002FA03F3BA691343F6
:1038B000BB617B68BA691A603B685B6803F440339C
:1038C000002B00F0B4800023FB60604B5B6C5F4A10
:1038D00043F4804353645D4B5B6C03F48043FB60B3
:1038E000FB685B4AFB699B08023352F82330BB61DB
:1038F000FB6903F003039B000F2202FA03F3DB438F
:10390000BA691340BB617B68524A93422BD07B68F3
:10391000514A934225D07B68504A93421FD07B681E
:103920004F4A934219D07B684E4A934213D07B682A
:103930004D4A93420DD07B684C4A934207D07B6836
:103940004B4A934201D107230EE008230CE00623E3
:103950000AE0052308E0042306E0032304E0022331
:1039600002E0012300E00023FA6902F00302920062
:103970009340BA691343BB613549FB699B08023325
:10398000BA6941F823203B4B9B68BB613B69DB4331
:10399000BA691340BB613B685B6803F48013002B7A
:1039A00003D0BA693B691343BB61324ABB69936078
:1039B000304BDB68BB613B69DB43BA691340BB61D9
:1039C0003B685B6803F40013002B03D0BA693B69C2
:1039D0001343BB61274ABB69D360264B5B68BB615D
:1039E0003B69DB43BA691340BB613B685B6803F426
:1039F0000033002B03D0BA693B691343BB611D4AF6
:103A0000BB6953601B4B1B68BB613B69DB43BA69F5
:103A10001340BB613B685B6803F48033002B03D029
:103A2000BA693B691343BB61124ABB691360FB6906
:103A30000133FB61FB690F2B7FF690AE00BF00BF27
:103A40002437BD465DF8047B704700BF0038024054
:103A5000003801400000024000040240000802401B
:103A6000000C024000100240001402400018024006
:103A7000001C0240003C014080B483B000AF78607D
:103A80000B467B8013467B707B78002B03D07A88B3
:103A90007B689A6103E07B881A047B689A6100BFA7
:103AA0000C37BD465DF8047B704780B485B000AF2D
:103AB00078600B467B807B685B69FB607A88FB687B
:103AC00013401A04FB68D9437B880B401A437B6878
:103AD0009A6100BF1437BD465DF8047B7047000053
:103AE00080B586B000AF78607B68002B01D10123E0
:103AF00067E27B681B6803F00103002B75D0884BDD
:103B00009B6803F00C03042B0CD0854B9B6803F0DF
:103B10000C03082B12D1824B5B6803F48003B3F5CE
:103B2000800F0BD17E4B1B6803F40033002B5BD05E
:103B30007B685B68002B57D1012342E27B685B689E
:103B4000B3F5803F06D1764B1B68754A43F480334A
:103B500013601DE07B685B68B3F5A02F0CD1704B40
:103B60001B686F4A43F4802313606D4B1B686C4ADB
:103B700043F4803313600BE0694B1B68684A23F4FD
:103B800080331360664B1B68654A23F480231360FF
:103B90007B685B68002B13D0FEF7A6FD386108E058
:103BA000FEF7A2FD02463B69D31A642B01D9032319
:103BB00007E25B4B1B6803F40033002BF0D014E0EA
:103BC000FEF792FD386108E0FEF78EFD02463B6984
:103BD000D31A642B01D90323F3E1514B1B6803F47F
:103BE0000033002BF0D100E000BF7B681B6803F0BE
:103BF0000203002B63D04A4B9B6803F00C03002B9D
:103C00000BD0474B9B6803F00C03082B1CD1444B93
:103C10005B6803F48003002B16D1414B1B6803F053
:103C20000203002B05D07B68DB68012B01D0012348
:103C3000C7E13B4B1B6823F0F8027B681B69DB0084
:103C4000374913430B603AE07B68DB68002B20D0D8
:103C5000344B01221A60FEF747FD386108E0FEF799
:103C600043FD02463B69D31A022B01D90323A8E185
:103C70002B4B1B6803F00203002BF0D0284B1B6872
:103C800023F0F8027B681B69DB00254913430B60B6
:103C900015E0244B00221A60FEF726FD386108E08B
:103CA000FEF722FD02463B69D31A022B01D90323FA
:103CB00087E11B4B1B6803F00203002BF0D17B68EC
:103CC0001B6803F00803002B36D07B685B69002B70
:103CD00016D0154B01221A60FEF706FD386108E088
:103CE000FEF702FD02463B69D31A022B01D90323DA
:103CF00067E10B4B5B6F03F00203002BF0D01BE07E
:103D0000094B00221A60FEF7EFFC38610EE0FEF767
:103D1000EBFC02463B69D31A022B07D9032350E17F
:103D20000038024000004742800E4742884B5B6FDC
:103D300003F00203002BEAD17B681B6803F0040345
:103D4000002B00F097800023FB75814B1B6C03F068
:103D50008053002B0FD10023BB607D4B1B6C7C4A32
:103D600043F0805313647A4B1B6C03F08053BB60A9
:103D7000BB680123FB75774B1B6803F48073002B32
:103D800018D1744B1B68734A43F480731360FEF7B9
:103D9000ABFC386108E0FEF7A7FC02463B69D31A8A
:103DA000022B01D903230CE16A4B1B6803F48073D7
:103DB000002BF0D07B689B68012B06D1644B1B6FF6
:103DC000634A43F0010313671CE07B689B68052B83
:103DD0000CD15F4B1B6F5E4A43F0040313675C4BCF
:103DE0001B6F5B4A43F0010313670BE0584B1B6FDB
:103DF000574A23F001031367554B1B6F544A23F0B6
:103E0000040313677B689B68002B15D0FEF76CFCDE
:103E100038610AE0FEF768FC02463B69D31A41F2BA
:103E20008832934201D90323CBE0494B1B6F03F047
:103E30000203002BEED014E0FEF756FC38610AE0D6
:103E4000FEF752FC02463B69D31A41F28832934294
:103E500001D90323B5E03E4B1B6F03F00203002B97
:103E6000EED1FB7D012B05D1394B1B6C384A23F079
:103E7000805313647B689B69002B00F0A180344B56
:103E80009B6803F00C03082B5CD07B689B69022BBA
:103E900041D1314B00221A60FEF726FC386108E060
:103EA000FEF722FC02463B69D31A022B01D90323F9
:103EB00087E0274B1B6803F00073002BF0D17B6871
:103EC000DA697B681B6A1A437B685B6A9B011A4349
:103ED0007B689B6A5B08013B1B041A437B68DB6AB7
:103EE0001B061B4913434B601B4B01221A60FEF754
:103EF000FBFB386108E0FEF7F7FB02463B69D31A8B
:103F0000022B01D903235CE0114B1B6803F0007303
:103F1000002BF0D054E0104B00221A60FEF7E4FBB7
:103F2000386108E0FEF7E0FB02463B69D31A022B3A
:103F300001D9032345E0064B1B6803F00073002BF7
:103F4000F0D13DE07B689B69012B07D1012338E06C
:103F50000038024000700040600047421B4B5B6825
:103F6000FB607B689B69012B28D0FB6803F480020F
:103F70007B68DB699A4221D1FB6803F03F027B68D2
:103F80001B6A9A421AD1FA6847F6C07313407A68DE
:103F9000526A9201934211D1FB6803F440327B686C
:103FA0009B6A5B08013B1B049A4207D1FB6803F044
:103FB00070627B68DB6A1B069A4201D0012300E035
:103FC000002318461837BD4680BD00BF00380240A8
:103FD00080B584B000AF786039607B68002B01D178
:103FE0000123CCE0684B1B6803F007033A689A4250
:103FF0000CD9654B3A68D2B21A70634B1B6803F058
:1040000007033A689A4201D00123B8E07B681B6835
:1040100003F00203002B20D07B681B6803F004032D
:10402000002B05D0594B9B68584A43F4E0539360EA
:104030007B681B6803F00803002B05D0534B9B687B
:10404000524A43F460439360504B9B6823F0F00264
:104050007B689B684D4913438B607B681B6803F04A
:104060000103002B44D07B685B68012B07D1474BD1
:104070001B6803F40033002B19D101237FE07B6818
:104080005B68022B03D07B685B68032B07D13F4B37
:104090001B6803F00073002B09D101236FE03B4B39
:1040A0001B6803F00203002B01D1012367E0374BAB
:1040B0009B6823F003027B685B68344913438B6081
:1040C000FEF712FBF8600AE0FEF70EFB0246FB6803
:1040D000D31A41F28832934201D903234FE02B4B8C
:1040E0009B6803F00C027B685B689B009A42EBD1F3
:1040F000254B1B6803F007033A689A420CD2224B07
:104100003A68D2B21A70204B1B6803F007033A6872
:104110009A4201D0012332E07B681B6803F004035C
:10412000002B08D0194B9B6823F4E0527B68DB68B6
:10413000164913438B607B681B6803F00803002B50
:1041400009D0124B9B6823F460427B681B69DB003B
:104150000E4913438B6000F02DF802460B4B9B6811
:104160001B0903F00F030A49CB5C22FA03F3094A47
:104170001360094B1B681846FEF772FA00231846B5
:104180001037BD4680BD00BF003C024000380240F1
:104190001CCD0008000000200C00002080B400AFFF
:1041A000034B01221A6000BFBD465DF8047B7047D7
:1041B0004C0047422DE9B04F94B000AF00237B6420
:1041C0000023FB6400233B640023BB64794B9B68A2
:1041D00003F00C03082B0DD0082B00F2E180002B1C
:1041E00002D0042B03D0DBE0734BBB64DBE0724BEB
:1041F000BB64D8E06F4B5B6803F03F037B646D4B9F
:104200005B6803F48003002B63D06A4B5B689B09F7
:104210000022BB63FA63BB6BC3F308033B63002359
:104220007B63D7E90C4522462B464FF000004FF048
:104230000001590141EAD261500102460B46214674
:10424000511A3961294663EB01037B614FF000028B
:104250004FF00003D7E904AB59468B01514643EABE
:10426000916351468A015146B2EB0108594663EB0E
:1042700001094FF000024FF000034FEAC90343EA7F
:1042800058734FEAC80290469946234618EB030339
:10429000BB602B4649EB0303FB604FF000024FF07D
:1042A0000003D7E9024529468B02214643EA915390
:1042B00021468A02104619467B6C0022BB62FA62D4
:1042C000D7E90A23FCF770FC02460B461346FB6451
:1042D00058E0384B5B689B09002218461146C0F332
:1042E00008033B6200237B62D7E9088942464B46BC
:1042F0004FF000004FF00001590141EAD261500136
:1043000002460B464146B2EB010A494663EB010BFC
:104310004FF000024FF000034FEA8B1343EA9A6319
:104320004FEA8A12B2EB0A0463EB0B054FF000026E
:104330004FF00003EB0043EA5473E20014461D46BD
:104340004346E3183B604B4645EB03037B604FF06D
:1043500000024FF00003D7E9004529468B022146B1
:1043600043EA915321468A02104619467B6C00228B
:10437000BB61FA61D7E90623FCF716FC02460B463F
:104380001346FB640B4B5B681B0C03F00303013308
:104390005B003B64FA6C3B6CB2FBF3F3BB6402E082
:1043A000054BBB6400BFBB6C18465037BD46BDE82B
:1043B000B08F00BF003802400024F40080B400AF8A
:1043C000034B1B681846BD465DF8047B704700BF71
:1043D0000000002080B500AFFFF7F0FF0246054B5C
:1043E0009B689B0A03F007030349CB5C22FA03F3A3
:1043F000184680BD003802402CCD000880B500AFC3
:10440000FFF7DCFF0246054B9B685B0B03F00703DD
:104410000349CB5C22FA03F3184680BD0038024002
:104420002CCD000880B500AF064BDB6803F080039D
:10443000802B04D100F00AF8034B80221A7000BFD1
:1044400080BD00BF003802400E38024080B400AF8B
:1044500000BFBD465DF8047B704780B582B000AFF9
:1044600078607B68002B01D101237BE07B685B6A6D
:10447000002B08D17B685B68B3F5827F09D07B682D
:104480000022DA6105E07B6800221A617B68002265
:104490005A617B6800229A627B6893F85130DBB2E4
:1044A000002B06D17B68002283F850207868FDF746
:1044B000B9FA7B68022283F851207B681B681A686E
:1044C0007B681B6822F040021A607B685B6803F41B
:1044D00082727B689B6803F404431A437B68DB6841
:1044E00003F400631A437B681B6903F002031A4359
:1044F0007B685B6903F001031A437B689B6903F4E3
:1045000000731A437B68DB6903F038031A437B6846
:104510001B6A03F0800342EA03017B689B6A03F491
:1045200000527B681B680A431A607B689B691B0CFE
:1045300003F004017B685B6A03F010027B681B6870
:104540000A435A607B681B68DA697B681B6822F43F
:104550000062DA617B6800225A657B68012283F879
:104560005120002318460837BD4680BD80B588B06D
:1045700000AFF860B9603B601346FB800023FB7717
:10458000FB6893F85030012B01D1022326E1FB6830
:10459000012283F85020FEF7A7F8B861FB88FB8260
:1045A000FB6893F85130DBB2012B02D00223FB777A
:1045B0000BE1BB68002B02D0FB88002B02D101234A
:1045C000FB7702E1FB68032283F85120FB6800229D
:1045D0005A65FB68BA681A63FB68FA889A86FB68B2
:1045E000FA88DA86FB6800229A63FB6800229A87C1
:1045F000FB680022DA87FB6800225A64FB6800220D
:104600001A64FB689B68B3F5004F0FD1FB681B6809
:104610001A68FB681B6822F040021A60FB681B687E
:104620001A68FB681B6842F480421A60FB681B68CA
:104630001B6803F04003402B07D0FB681B681A6817
:10464000FB681B6842F040021A60FB68DB68B3F548
:10465000006F4BD1FB685B68002B02D0FB8A012BFB
:104660003ED1FB681B6B1A88FB681B68DA60FB682D
:104670001B6B9A1CFB681A63FB68DB8E9BB2013BC9
:104680009AB2FB68DA862BE0FB681B689B6803F034
:104690000203022B12D1FB681B6B1A88FB681B6894
:1046A000DA60FB681B6B9A1CFB681A63FB68DB8E85
:1046B0009BB2013B9AB2FB68DA8611E0FEF714F870
:1046C0000246BB69D31A3A689A4203D83B68B3F1F1
:1046D000FF3F02D13B68002B02D10323FB7774E03C
:1046E000FB68DB8E9BB2002BCED14CE0FB685B6895
:1046F000002B02D0FB8A012B40D1FB681A6BFB68B0
:104700001B680C3312781A70FB681B6B5A1CFB6811
:104710001A63FB68DB8E9BB2013B9AB2FB68DA86B8
:104720002CE0FB681B689B6803F00203022B13D18B
:10473000FB681A6BFB681B680C3312781A70FB68F5
:104740001B6B5A1CFB681A63FB68DB8E9BB2013B38
:104750009AB2FB68DA8611E0FDF7C6FF0246BB6934
:10476000D31A3A689A4203D83B68B3F1FF3F02D1AB
:104770003B68002B02D10323FB7726E0FB68DB8E2E
:104780009BB2002BCDD1BA693968F86800F0CCFB38
:104790000346002B02D0FB6820225A65FB689B6809
:1047A000002B0AD100233B61FB681B68DB683B617F
:1047B000FB681B689B683B613B69FB685B6D002B7A
:1047C00002D00123FB7700E000BFFB68012283F8E1
:1047D0005120FB68002283F85020FB7F18462037C9
:1047E000BD4680BD80B588B002AFF860B9603B605F
:1047F0001346FB800023FB75FB685B68B3F5827F83
:1048000012D1FB689B68002B0ED1FB68042283F851
:104810005120FA883B6800931346BA68B968F86873
:1048200000F0F1F80346EAE0FB6893F85030012B02
:1048300001D10223E3E0FB68012283F85020FDF759
:1048400053FF3861FB6893F85130DBB2012B02D083
:104850000223FB75CAE0BB68002B02D0FB88002B4B
:1048600002D10123FB75C1E0FB68042283F85120CB
:10487000FB6800225A65FB68BA689A63FB68FA888D
:104880009A87FB68FA88DA87FB6800221A63FB685C
:1048900000229A86FB680022DA86FB6800221A64EE
:1048A000FB6800225A64FB689B68B3F5004F0FD188
:1048B000FB681B681A68FB681B6822F040021A60DC
:1048C000FB681B681A68FB681B6822F480421A6048
:1048D000FB681B681B6803F04003402B07D0FB6894
:1048E0001B681A68FB681B6842F040021A60FB688C
:1048F000DB68002B62D12EE0FB681B689B6803F02D
:104900000103012B15D1FB681B6803F10C02FB6846
:104910009B6B1278D2B21A70FB689B6B5A1CFB68B7
:104920009A63FB68DB8F9BB2013B9AB2FB68DA8724
:1049300011E0FDF7D9FE02463B69D31A3A689A4264
:1049400003D83B68B3F1FF3F02D13B68002B02D193
:104950000323FB754AE0FB68DB8F9BB2002BCBD1B6
:1049600031E0FB681B689B6803F00103012B13D146
:10497000FB681B68DA68FB689B6B92B21A80FB6865
:104980009B6B9A1CFB689A63FB68DB8F9BB2013BB5
:104990009AB2FB68DA8711E0FDF7A6FE02463B6992
:1049A000D31A3A689A4203D83B68B3F1FF3F02D169
:1049B0003B68002B02D10323FB7517E0FB68DB8FFC
:1049C0009BB2002BCDD13A693968F86800F046FAFD
:1049D0000346002B02D0FB6820225A65FB685B6D02
:1049E000002B02D00123FB7500E000BFFB68012211
:1049F00083F85120FB68002283F85020FB7D184685
:104A00001837BD4680BD80B58CB000AFF860B96086
:104A10007A607B800123FB62002387F82B30FB68E0
:104A200093F85030012B01D102238AE1FB68012267
:104A300083F85020FDF758FE7862FB6893F85130F8
:104A400087F82330FB685B68FB617B887B8397F882
:104A50002330012B0FD0FB69B3F5827F07D1FB68B0
:104A60009B68002B03D197F82330042B03D002233B
:104A700087F82B305BE1BB68002B05D07B68002BEF
:104A800002D07B88002B03D1012387F82B304EE125
:104A9000FB6893F85130DBB2042B03D0FB6805228E
:104AA00083F85120FB6800225A65FB687A689A6394
:104AB000FB687A88DA87FB687A889A87FB68BA6825
:104AC0001A63FB687A88DA86FB687A889A86FB68BC
:104AD00000221A64FB6800225A64FB681B681B688A
:104AE00003F04003402B07D0FB681B681A68FB6883
:104AF0001B6842F040021A60FB68DB68B3F5006F88
:104B000078D1FB685B68002B02D07B8B012B66D1D0
:104B1000FB681B6B1A88FB681B68DA60FB681B6B01
:104B20009A1CFB681A63FB68DB8E9BB2013B9AB24E
:104B3000FB68DA8653E0FB681B689B6803F002039E
:104B4000022B1BD1FB68DB8E9BB2002B16D0FB6ABD
:104B5000012B13D1FB681B6B1A88FB681B68DA609A
:104B6000FB681B6B9A1CFB681A63FB68DB8E9BB2AD
:104B7000013B9AB2FB68DA860023FB62FB681B6884
:104B80009B6803F00103012B19D1FB68DB8F9BB2FB
:104B9000002B14D0FB681B68DA68FB689B6B92B231
:104BA0001A80FB689B6B9A1CFB689A63FB68DB8F1F
:104BB0009BB2013B9AB2FB68DA870123FB62FDF7E7
:104BC00093FD02467B6AD31ABA6B9A4207D8BB6B35
:104BD000B3F1FF3F03D0032387F82B30A7E0FB6836
:104BE000DB8E9BB2002BA6D1FB68DB8F9BB2002B28
:104BF000A1D17CE0FB685B68002B02D07B8B012B92
:104C00006BD1FB681A6BFB681B680C3312781A7047
:104C1000FB681B6B5A1CFB681A63FB68DB8E9BB23C
:104C2000013B9AB2FB68DA8657E0FB681B689B6819
:104C300003F00203022B1CD1FB68DB8E9BB2002B1E
:104C400017D0FB6A012B14D1FB681A6BFB681B6839
:104C50000C3312781A70FB681B6B5A1CFB681A63C2
:104C6000FB68DB8E9BB2013B9AB2FB68DA860023BD
:104C7000FB62FB681B689B6803F00103012B19D1E1
:104C8000FB68DB8F9BB2002B14D0FB681B68DA68D3
:104C9000FB689B6BD2B21A70FB689B6B5A1CFB685B
:104CA0009A63FB68DB8F9BB2013B9AB2FB68DA87A1
:104CB0000123FB62FDF718FD02467B6AD31ABA6B2B
:104CC0009A4203D8BB6BB3F1FF3F02D1BB6B002B01
:104CD00003D1032387F82B3029E0FB68DB8E9BB2DE
:104CE000002BA2D1FB68DB8F9BB2002B9DD17A6A8F
:104CF000B96BF86800F018F90346002B06D00123C1
:104D000087F82B30FB6820225A6510E0FB689B680F
:104D1000002B0BD100237B61FB681B68DB687B6188
:104D2000FB681B689B687B617B6900E000BFFB68D8
:104D3000012283F85120FB68002283F8502097F865
:104D40002B3018463037BD4680BD000080B588B096
:104D500000AFF860B9603B601346FB71FDF7C4FC1F
:104D60000246BB6A9B1A3A681344FB61FDF7BCFC20
:104D7000B861394B1B685B011B0DFA6902FB03F339
:104D80007B6154E03B68B3F1FF3F50D0FDF7ACFCD2
:104D90000246BB69D31AFA699A4202D9FB69002B11
:104DA0003DD1FB681B685A68FB681B6822F0E00273
:104DB0005A60FB685B68B3F5827F11D1FB689B6822
:104DC000B3F5004F04D0FB689B68B3F5806F07D143
:104DD000FB681B681A68FB681B6822F040021A60B7
:104DE000FB689B6AB3F5005F0FD1FB681B681A680C
:104DF000FB681B6822F400521A60FB681B681A6883
:104E0000FB681B6842F400521A60FB68012283F8B9
:104E10005120FB68002283F85020032317E07B69B0
:104E2000002B01D10023FB617B69013B7B61FB68A7
:104E30001B689A68BB681340BA689A420CBF01238A
:104E40000023DBB21A46FB799A429BD10023184615
:104E50002037BD4680BD00BF0000002080B586B071
:104E600002AFF860B9607A60FB685B68B3F5827F77
:104E700011D1FB689B68B3F5004F04D0FB689B68B9
:104E8000B3F5806F07D1FB681B681A68FB681B6865
:104E900022F040021A60FB685B68B3F5827F2AD17A
:104EA000FB689B68B3F5806F12D07B680093BB688A
:104EB00000228021F868FFF749FF0346002B2DD020
:104EC000FB685B6D43F02002FB685A65032326E014
:104ED0007B680093BB6800220121F868FFF736FF6A
:104EE0000346002B1AD0FB685B6D43F02002FB6881
:104EF0005A65032313E07B680093BB6800220121FD
:104F0000F868FFF723FF0346002B07D0FB685B6DB3
:104F100043F02002FB685A65032300E00023184693
:104F20001037BD4680BD000080B588B002AFF86084
:104F3000B9607A601B4B1B681B4AA2FB03235B0D05
:104F40004FF47A7202FB03F37B61FB685B68B3F595
:104F5000827F12D17B680093BB6800228021F868B1
:104F6000FFF7F4FE0346002B16D0FB685B6D43F0A1
:104F70002002FB685A6503230FE07B69002B0AD0EF
:104F80007B69013B7B61FB681B689B6803F08003C6
:104F9000802BF2D000E000BF002318461837BD4632
:104FA00080BD00BF00000020819F5E1680B582B0EA
:104FB00000AF78607B68002B01D1012341E07B6862
:104FC00093F83D30DBB2002B06D17B68002283F8DA
:104FD0003C207868FCF7A4FD7B68022283F83D2022
:104FE0007B681A687B6804331946104600F044FE5B
:104FF0007B68012283F846207B68012283F83E20EB
:105000007B68012283F83F207B68012283F84020DF
:105010007B68012283F841207B68012283F84220CB
:105020007B68012283F843207B68012283F84420B7
:105030007B68012283F845207B68012283F83D20AC
:10504000002318460837BD4680BD000080B485B0F7
:1050500000AF78607B6893F83D30DBB2012B01D064
:10506000012346E07B68022283F83D207B681B68B1
:10507000234A934222D07B681B68B3F1804F1DD036
:105080007B681B681F4A934218D07B681B681E4AC6
:10509000934213D07B681B681C4A93420ED07B68F6
:1050A0001B681B4A934209D07B681B68194A9342CC
:1050B00004D07B681B68184A934211D17B681B6837
:1050C0009B6803F00703FB60FB68062B10D07B682E
:1050D0001B681A687B681B6842F001021A6007E0CF
:1050E0007B681B681A687B681B6842F001021A60C3
:1050F000002318461437BD465DF8047B704700BF97
:10510000000001400004004000080040000C004086
:1051100000040140004001400018004080B485B008
:1051200000AF78607B6893F83D30DBB2012B01D093
:1051300001234EE07B68022283F83D207B681B68D8
:10514000DA687B681B6842F00102DA607B681B68E2
:10515000234A934222D07B681B68B3F1804F1DD055
:105160007B681B681F4A934218D07B681B681E4AE5
:10517000934213D07B681B681C4A93420ED07B6815
:105180001B681B4A934209D07B681B68194A9342EB
:1051900004D07B681B68184A934211D17B681B6856
:1051A0009B6803F00703FB60FB68062B10D07B684D
:1051B0001B681A687B681B6842F001021A6007E0EE
:1051C0007B681B681A687B681B6842F001021A60E2
:1051D000002318461437BD465DF8047B704700BFB6
:1051E000000001400004004000080040000C0040A6
:1051F00000040140004001400018004080B483B02A
:1052000000AF78607B681B68DA687B681B6822F0F7
:105210000102DA607B681B681A6A41F211131340BD
:10522000002B0FD17B681B681A6A40F2444313407D
:10523000002B07D17B681B681A687B681B6822F00B
:1052400001021A607B68012283F83D200023184682
:105250000C37BD465DF8047B704780B582B000AF67
:1052600078607B68002B01D1012341E07B6893F8D3
:105270003D30DBB2002B06D17B68002283F83C2056
:10528000786800F039F87B68022283F83D207B685B
:105290001A687B6804331946104600F0EDFC7B6801
:1052A000012283F846207B68012283F83E207B6838
:1052B000012283F83F207B68012283F840207B682D
:1052C000012283F841207B68012283F842207B6819
:1052D000012283F843207B68012283F844207B6805
:1052E000012283F845207B68012283F83D200023BA
:1052F00018460837BD4680BD80B483B000AF7860E3
:1053000000BF0C37BD465DF8047B704780B584B0A4
:1053100000AF786039603B68002B09D17B6893F857
:105320003E30DBB2012B14BF01230023DBB222E0AD
:105330003B68042B09D17B6893F83F30DBB2012B2B
:1053400014BF01230023DBB215E03B68082B09D111
:105350007B6893F84030DBB2012B14BF012300239C
:10536000DBB208E07B6893F84130DBB2012B14BF5D
:1053700001230023DBB2002B01D001237CE03B683A
:10538000002B04D17B68022283F83E2013E03B68A7
:10539000042B04D17B68022283F83F200BE03B689A
:1053A000082B04D17B68022283F8402003E07B684D
:1053B000022283F841207B681B6801223968184665
:1053C00000F044FF7B681B682D4A934204D07B6841
:1053D0001B682C4A934201D1012300E00023002BDB
:1053E00007D07B681B685A6C7B681B6842F40042DC
:1053F0005A647B681B68224A934222D07B681B68F0
:10540000B3F1804F1DD07B681B681F4A934218D0B0
:105410007B681B681D4A934213D07B681B681C4A3B
:1054200093420ED07B681B68164A934209D07B6872
:105430001B68184A934204D07B681B68164A934243
:1054400011D17B681B689B6803F00703FB60FB6856
:10545000062B10D07B681B681A687B681B6842F0BB
:1054600001021A6007E07B681B681A687B681B688A
:1054700042F001021A60002318461037BD4680BD75
:10548000000001400004014000040040000800400A
:10549000000C0040004001400018004080B586B07C
:1054A00000AF786039607B68002B01D1012397E061
:1054B0007B6893F83D30DBB2002B06D17B6800227D
:1054C00083F83C207868FCF7C9FB7B68022283F8EC
:1054D0003D207B681B689B687A68126823F48043D0
:1054E00023F0070393607B681A687B6804331946CE
:1054F000104600F0C1FB7B681B689B687B617B6882
:105500001B689B693B617B681B681B6AFB603B688F
:105510001B687A6913437B613B6923F4407323F072
:1055200003033B613B689A683B689B691B0213431A
:105530003A6913433B613B6923F4406323F00C0356
:105540003B613B6923F4704323F0F0033B613B680C
:10555000DA683B68DB691B0213433A6913433B611A
:105560003B681B691A013B681B6A1B0313433A69BA
:1055700013433B61FB6823F02203FB60FB6823F0CD
:105580008803FB603B685A683B685B691B011343F7
:10559000FA681343FB607B681B687A699A607B68D2
:1055A0001B683A699A617B681B68FA681A627B68B3
:1055B000012283F846207B68012283F83E207B6825
:1055C000012283F83F207B68012283F842207B6818
:1055D000012283F843207B68012283F83D200023C9
:1055E00018461837BD4680BD80B584B000AF7860DE
:1055F00039607B6893F83E30FB737B6893F83F30EB
:10560000BB737B6893F842307B737B6893F84330BD
:105610003B733B68002B10D1FB7B012B02D17B7BC2
:10562000012B01D0012369E07B68022283F83E2030
:105630007B68022283F8422031E03B68042B10D1C2
:10564000BB7B012B02D13B7B012B01D0012355E019
:105650007B68022283F83F207B68022283F8432084
:105660001DE0FB7B012B08D1BB7B012B05D17B7B94
:10567000012B02D13B7B012B01D001233EE07B6853
:10568000022283F83E207B68022283F83F207B6859
:10569000022283F842207B68022283F843203B6881
:1056A000002B03D03B68042B08D00FE07B681B68FD
:1056B00001220021184600F0C9FD16E07B681B6836
:1056C00001220421184600F0C1FD0EE07B681B6832
:1056D00001220021184600F0B9FD7B681B680122F9
:1056E0000421184600F0B2FD00BF7B681B681A68F1
:1056F0007B681B6842F001021A60002318461037CD
:10570000BD4680BD80B582B000AF78607B681B6805
:105710001B6903F00203022B22D17B681B68DB6844
:1057200003F00203022B1BD17B681B686FF002029F
:105730001A617B6801221A777B681B689B6903F0FA
:105740000303002B03D0786800F077FA05E078684F
:1057500000F069FA786800F07AFA7B6800221A771C
:105760007B681B681B6903F00403042B22D17B6850
:105770001B68DB6803F00403042B1BD17B681B68E8
:105780006FF004021A617B6802221A777B681B683B
:105790009B6903F44073002B03D0786800F04DFA46
:1057A00005E0786800F03FFA786800F050FA7B680E
:1057B00000221A777B681B681B6903F00803082B1B
:1057C00022D17B681B68DB6803F00803082B1BD120
:1057D0007B681B686FF008021A617B6804221A77E5
:1057E0007B681B68DB6903F00303002B03D0786838
:1057F00000F023FA05E0786800F015FA786800F008
:1058000026FA7B6800221A777B681B681B6903F005
:105810001003102B22D17B681B68DB6803F0100398
:10582000102B1BD17B681B686FF010021A617B681C
:1058300008221A777B681B68DB6903F44073002B2E
:1058400003D0786800F0F9F905E0786800F0EBF92A
:10585000786800F0FCF97B6800221A777B681B6887
:105860001B6903F00103012B0ED17B681B68DB6809
:1058700003F00103012B07D17B681B686FF0010265
:105880001A61786802F0C6F87B681B681B6903F030
:105890008003802B0ED17B681B68DB6803F08003DC
:1058A000802B07D17B681B686FF080021A617868D3
:1058B00000F078FD7B681B681B6903F04003402BF8
:1058C0000ED17B681B68DB6803F04003402B07D1D7
:1058D0007B681B686FF040021A61786800F0C1F9BC
:1058E0007B681B681B6903F02003202B0ED17B68AB
:1058F0001B68DB6803F02003202B07D17B681B6843
:105900006FF020021A61786800F042FD00BF08378E
:10591000BD4680BD80B586B000AFF860B9607A60E2
:105920000023FB75FB6893F83C30012B01D1022367
:10593000AEE0FB68012283F83C207B680C2B00F270
:105940009F8001A252F823F07D590008815A000877
:10595000815A0008815A0008BD590008815A000880
:10596000815A0008815A0008FF590008815A00082E
:10597000815A0008815A00083F5A0008FB681B68DA
:10598000B968184600F018FAFB681B689A69FB684A
:105990001B6842F008029A61FB681B689A69FB6801
:1059A0001B6822F004029A61FB681B689969BB6856
:1059B0001A69FB681B680A439A6164E0FB681B680C
:1059C000B968184600F068FAFB681B689A69FB68BA
:1059D0001B6842F400629A61FB681B689A69FB6865
:1059E0001B6822F480629A61FB681B689969BB6836
:1059F0001B691A02FB681B680A439A6143E0FB6853
:105A00001B68B968184600F0BDFAFB681B68DA69C4
:105A1000FB681B6842F00802DA61FB681B68DA6900
:105A2000FB681B6822F00402DA61FB681B68D96915
:105A3000BB681A69FB681B680A43DA6123E0FB68EC
:105A40001B68B968184600F011FBFB681B68DA692F
:105A5000FB681B6842F40062DA61FB681B68DA6964
:105A6000FB681B6822F48062DA61FB681B68D969F5
:105A7000BB681B691A02FB681B680A43DA6102E013
:105A80000123FB7500BFFB68002283F83C20FB7DEF
:105A900018461837BD4680BD80B584B000AF786029
:105AA00039600023FB737B6893F83C30012B01D1F4
:105AB0000223B4E07B68012283F83C207B68022249
:105AC00083F83D207B681B689B68BB60BB6823F044
:105AD0007703BB60BB6823F47F43BB607B681B68B4
